S00F00004547545F416D702E73726563B8
S11300000C943E000C9453000C9453000C94530035
S11300100C9453000C9453000C9453000C94530010
S11300200C9453000C9453000C9453000C94530000
S11300300C9453000C9453000C9453000C945300F0
S11300400C9453000C9453000C9453000C945300E0
S11300500C9453000C9453000C9453000C945300D0
S11300600C9453000C9453000C9453000C945300C0
S11300700C9453000C9453000C94530011241FBE91
S1130080CFEFD0E1DEBFCDBF11E0A0E0B1E0E2EF01
S1130090F0E002C005900D92A630B107D9F70E9496
S11300A068000C9477000C940000CF93DF93FC015C
S11300B03196DC018C91882341F0C2EDD0E0DF0160
S11300C0819188838C918111FACFDF91CF9108952A
S11300D088E08AB98FE08093C8001092CE0089E14D
S11300E08093CD0080E091E00E945500FBCFF8940E
S10500F0FFCF3C
S10900F2746573740A003A
S9030000FC
