:100000000C9449000C9453000C9453000C9453002E
:100010000C9453000C9453000C9453000C94530014
:100020000C9453000C9453000C9453000C94530004
:100030000C9453000C9453000C9453000C945300F4
:100040000C9453000C9453000C9453000C945300E4
:100050000C9453000C9453000C9453000C945300D4
:100060000C9453000C9453000C9453000C945300C4
:100070000C9453000C9453000C9453002101B301D1
:100080002D029102CE0215036003EB0380041C01D4
:10009000760511241FBECFEFD0E1DEBFCDBF0E9499
:1000A000E1060C9436070C94000080E0ADEEB0E061
:1000B0003EEE20E0982F9295907F9C93E32FF22FB5
:1000C0001192E83FF105E1F78F5F863099F70895C7
:1000D000EDEEF0E0208110828091EF00807C69F0ED
:1000E00081E0ADEEB0E0EFEEF0E0982F9295907FDA
:1000F0009C939081907C29F401C080E02093ED00D6
:1001000008958F5F863089F72093ED008FEF089573
:100110008091EF00807C61F08091EE00982F907EBE
:10012000903241F0903441F0903A41F08F7108954F
:100130008FEF089580E2089580E4089580EA08959D
:10014000CF93DF93BC018091EF008F7099F090E026
:10015000CAEFD0E0AFEEB0E02881FB01E90FF11D5E
:1001600020839F5F2C91492F50E02F7030E0421781
:10017000530794F3DF91CF91089581E08093D800E5
:1001800082E08093E20084E08093E30083E1809347
:10019000E40081E008950E94BD00882341F00E94A0
:1001A0005500E8EDF0E080818260808381E0089571
:1001B0000F931F93CF93DF9300D000D0CDB7DEB75E
:1001C000FC0181818C3099F48185803669F48081CD
:1001D0008295807F8093ED00AFEEB0E08C918F73BD
:1001E0008C931092EE001082118680E038C58F014A
:1001F0000E9468008F3F09F42DC590E6D80119963A
:100200009C9319978C938295807F8093ED00EEEEFE
:10021000F0E01192E83FF105E1F7D8011196EC9179
:100220008E2F90E0FC013197EB30F10508F00EC500
:10023000E25CFF4F0C943007F80186818111F9C30D
:100240000AC4D8011B968C911B978823E9F1149658
:100250008C911497982F92959695977015968C91EE
:100260001597880F880F880F890F8093F3001396D6
:100270008C911397982F92959695977014968C91D0
:100280001497880F880F880F890F8093F2001296B9
:100290008C911297982F92959695977013968C91B2
:1002A0001397880F880F880F890F8093F10012969B
:1002B0008C91880F880F880F8093F000EFEEF0E0AC
:1002C00080818061808319C0F8018281869586953E
:1002D00086959381F0E29F9F800D11248093F30017
:1002E000D80112968C918295880F807E8093F200BF
:1002F000EFEEF0E080818F7E8083F8018681882395
:1003000091F080E02AEF30E0D8011796ED91FC9152
:100310001897E80FF11D9081F90190838F5F169671
:100320009C91891788F3D8011A968C91882331F013
:10033000E0EFF0E080818460808305C0E0EFF0E0D2
:1003400080818B7F8083EFEEF0E09081D80116965C
:100350008C91892B808380818F73808380818064DE
:10036000808380E07CC4F8018385882381F18481C7
:10037000982F9295969597708581880F880F880F92
:10038000890F8093F3008381982F929596959770AB
:100390008481880F880F880F890F8093F2008281F3
:1003A000982F9295969597708381880F880F880F64
:1003B000890F8093F1008281880F880F880F8093C6
:1003C000F000EFEEF0E080818061808317C08281D1
:1003D0008695869586959381B0E29B9F800D11242A
:1003E0008093F300F80182818295880F807E80934C
:1003F000F200EFEEF0E080818F7E8083D8011696C8
:100400008C91882391F080E02AEF30E0D801179694
:10041000ED91FC911897E80FF11D9081F9019083FF
:100420008F5F16969C91891788F3D8011A961C92B3
:100430001A97E0EFF0E080818B7F8083EFEEF0E0B1
:10044000908116968C91892B808380818F73808315
:1004500080818064808380E002C4F80183858823E2
:1004600081F18481982F9295969597708581880F58
:10047000880F880F890F8093F3008381982F9295BE
:10048000969597708481880F880F880F890F8093C5
:10049000F2008281982F9295969597708381880FAC
:1004A000880F880F890F8093F1008281880F880F51
:1004B000880F8093F000EFEEF0E080818061808310
:1004C00017C082818695869586959381B0E29B9F21
:1004D000800D11248093F300F80182818295880FAA
:1004E000807E8093F200EFEEF0E080818F7E80834B
:1004F00081E0D8011A968C931A97E0EFF0E08081A2
:1005000084608083EFEEF0E0908116968C91892BC9
:10051000808380818F73808380818064808380E08A
:100520009EC319821A821B821C821092F7008A8154
:10053000982F9295969597708B81880F880F880FCA
:10054000890F8093F6008981982F929596959770E0
:100550008A81880F880F880F890F8093F500898121
:10056000880F880F880F24EF30E0F9018083EFEEC9
:10057000F0E09081D80116968C91892B8083D90167
:100580008C918B7F8C938C918E7F8C9380818F73D9
:10059000808380818068808380E061C319821A82B1
:1005A0001B821C821092F7008A81982F9295969553
:1005B00097708B81880F880F880F890F8093F600C2
:1005C0008981982F9295969597708A81880F880FC8
:1005D000880F890F8093F5008981880F880F880F15
:1005E00044EF50E0FA018083EFEEF0E09081D80113
:1005F00016968C911697892B80831A961C92DA0195
:100600008C9184608C9320EF30E0D9018C918B7FAA
:100610008C93DA018C918E7F8C9380818F73808391
:1006200080818068808380E01AC319821A821B82CD
:100630001C821092F7008A81982F92959695977058
:100640008B81880F880F880F890F8093F60089812E
:10065000982F9295969597708A81880F880F880FAA
:10066000890F8093F5008981880F880F880F44EFE8
:1006700050E0FA018083EFEEF0E09081D801169609
:100680008C911697892B808381E01A968C93DA01DE
:100690008C9184608C9320EF30E0D9018C91846040
:1006A0008C9380818F7D8083DA018C918E7F8C93F7
:1006B00080818F73808380818068808380E0CFC257
:1006C000F8018385882381F18481982F92959695EE
:1006D00097708581880F880F880F890F8093F300AA
:1006E0008381982F9295969597708481880F880FB3
:1006F000880F890F8093F2008281982F92959695AA
:1007000097708381880F880F880F890F8093F1007D
:100710008281880F880F880F8093F000EFEEF0E061
:1007200080818061808317C08281869586958695B9
:100730009381B0E29B9F800D11248093F300F80118
:1007400082818295880F807E8093F200EFEEF0E048
:1007500080818F7E80838FEF9FEFDC0189839A8376
:10076000AB83BC838093F7008A81982F92959695EE
:1007700097708B81880F880F880F890F8093F60000
:100780008981982F9295969597708A81880F880F06
:10079000880F890F8093F5008981880F880F880F53
:1007A00024EF30E0D9018C93EFEEF0E09081D80196
:1007B00016968C91892B8083D9018C918B7F8C9399
:1007C0008C9181608C9380818F738083808180681D
:1007D000808380E044C2F8018385882381F184818D
:1007E000982F9295969597708581880F880F880F1E
:1007F000890F8093F3008381982F92959695977037
:100800008481880F880F880F890F8093F20082817E
:10081000982F9295969597708381880F880F880FEF
:10082000890F8093F1008281880F880F880F809351
:10083000F000EFEEF0E080818061808317C082815C
:100840008695869586959381B0E29B9F800D1124B5
:100850008093F300F80182818295880F807E8093D7
:10086000F200EFEEF0E080818F7E80838FEF9FEFCC
:10087000DC0189839A83AB83BC838093F7008A81F0
:10088000982F9295969597708B81880F880F880F77
:10089000890F8093F6008981982F9295969597708D
:1008A0008A81880F880F880F890F8093F5008981CE
:1008B000880F880F880F44EF50E0DA018C93EFEE39
:1008C000F0E09081D80116968C911697892B808341
:1008D0001A961C92DA018C9184608C9320EF30E0A0
:1008E000D9018C918B7F8C93DA018C9181608C93F0
:1008F00080818F73808380818068808380E0AFC136
:10090000F8018385882381F18481982F92959695AB
:1009100097708581880F880F880F890F8093F30067
:100920008381982F9295969597708481880F880F70
:10093000880F890F8093F2008281982F9295969567
:1009400097708381880F880F880F890F8093F1003B
:100950008281880F880F880F8093F000EFEEF0E01F
:1009600080818061808317C0828186958695869577
:100970009381B0E29B9F800D11248093F300F801D6
:1009800082818295880F807E8093F200EFEEF0E006
:1009900080818F7E80838FEF9FEFDC0189839A8334
:1009A000AB83BC838093F7008A81982F92959695AC
:1009B00097708B81880F880F880F890F8093F600BE
:1009C0008981982F9295969597708A81880F880FC4
:1009D000880F890F8093F5008981880F880F880F11
:1009E00044EF50E0DA018C93EFEEF0E09081D80113
:1009F00016968C911697892B808381E01A968C939A
:100A0000DA018C9184608C9320EF30E0D9018C91D5
:100A100084608C9380818F7D8083DA018C918160EA
:100A20008C9380818F73808380818068808380E055
:100A300016C180E02AEF30E0D8011796ED91FC91C5
:100A40001897E80FF11D9081F90190838F5F16963A
:100A50009C91891788F319821A821B821C8210923A
:100A6000F7008A81982F9295969597708B81880FC1
:100A7000880F880F890F8093F6008981982F9295AF
:100A8000969597708A81880F880F880F890F8093B9
:100A9000F5008981880F880F880F44EF50E0DA0154
:100AA0008C93EFEEF0E09081D80116968C9116971A
:100AB000892B808381E01A968C93DA018C91846073
:100AC0008C9320EF30E0D9018C9184608C938081ED
:100AD00080628083DA018C918E7F8C9380818F730A
:100AE000808380818068808380E0B9C0F80183853D
:100AF000882381F18481982F9295969597708581AE
:100B0000880F880F880F890F8093F3008381982FB7
:100B10009295969597708481880F880F880F890F1A
:100B20008093F2008281982F929596959770838199
:100B3000880F880F880F890F8093F1008281880FBA
:100B4000880F880F8093F000EFEEF0E080818061E5
:100B5000808317C082818695869586959381B0E2C1
:100B60009B9F800D11248093F300F8018281829570
:100B7000880F807E8093F200EFEEF0E080818F7E20
:100B80008083D80116968C91882391F080E02AEF1B
:100B900030E0D8011796ED91FC911897E80FF11D00
:100BA0009081F90190838F5F16969C91891788F345
:100BB0008FEF9FEFDC0189839A83AB83BC838093A3
:100BC000F7008A81982F9295969597708B81880F60
:100BD000880F880F890F8093F6008981982F92954E
:100BE000969597708A81880F880F880F890F809358
:100BF000F5008981880F880F880F44EF50E0DA01F3
:100C00008C93EFEEF0E09081D80116968C911697B8
:100C1000892B808381E01A968C93DA018C91846011
:100C20008C9320EF30E0D9018C9184608C9380818B
:100C300080628083DA018C9181608C9380818F73D4
:100C4000808380818068808380E009C0F8011186FC
:100C500080E005C08FE1D80119968C938FEF0F903B
:100C60000F900F900F90DF91CF911F910F910895EA
:100C7000EF92FF921F93CF93DF93FC01918599230D
:100C800009F492C09F3109F491C09F3F09F490C0CC
:100C9000EF0180818295807F8093ED000E94880023
:100CA000182F803259F020F4882309F483C072C0D1
:100CB000803409F464C0803A09F06CC00F2EFFEE56
:100CC000EF2EF12CF02DF70180818F708E838F81B4
:100CD00098850E94A0008091F00082FB882780F90F
:100CE0008A87F701808184FF2DC081E08B87E3EF45
:100CF000F0E080818695869586958D83A2EFB0E0A1
:100D00008C919081869586958695F0E29F9F800DC7
:100D100011248C83E1EFF0E080819C91869586958B
:100D2000869520E2929F800D11248B838091F000A4
:100D30009081869586958695E0E29E9F800D112490
:100D40008A8313C01B86E3EFF0E08081829586954D
:100D500087708B838091F2009081990F990F990F82
:100D6000829586958770890F8A831987EFEEF0E068
:100D700080818F7380831092EE0080E01CC080E43D
:100D80008987EFEEF0E080818F7380831092EE0010
:100D900080E011C01987EFEEF0E080818F738083CF
:100DA0001092EE0082E007C082E005C082E003C03E
:100DB00082E001C081E0DF91CF911F91FF90EF9021
:100DC0000895CF93DF93CDB7DEB764970FB6F8944D
:100DD000DEBF0FBECDBF88E08AB981E08093D80026
:100DE0000E94CB00E9EDF0E0808182FFFDCF8FEF24
:100DF0008093DA000E945500E8ECF0E08FE08083F9
:100E00008083EDECF0E089E190E0918380831092A3
:100E1000CE00808383E291E09C878B87CE01019690
:100E2000998B888B81E08A8788E08F87CE0109962D
:100E30000E94D8008111FACF09C0CE0109960E9404
:100E40003806823019F40E94550006C0CE0109967A
:100E50000E9438068111F1CF89818F5F8983E6CFA7
:100E6000EE0FFF1F0590F491E02D0994F894FFCF49
:00000001FF
