:1000000054C0000071C000006FC000006DC000004F
:100010006BC0000069C0000067C0000065C0000040
:1000200063C0000061C000005FC000005DC0000050
:100030000C94810D59C0000057C0000055C000004D
:1000400053C0000051C000004FC000004DC0000070
:100050004BC0000049C0000047C0000045C0000080
:1000600043C0000041C000003FC000003DC0000090
:100070003BC0000039C0000037C0000035C00000A0
:1000800033C0000031C000002FC000002DC00000B0
:100090002BC00000F001E602D0039E042105B1054B
:1000A0004B067107A408E109970A11241FBECFEF80
:1000B000D0E1DEBFCDBF11E0A0E0B1E0E2EDFFE2B4
:1000C00000E00BBF02C007900D92A034B107D9F732
:1000D00021E0A0E4B1E001C01D92A436B207E1F72F
:1000E0000E943F110C94E7178BCFCF93DF9300D082
:1000F0001F92CDB7DEB719821DC08DEE90E0298129
:100100002295207FFC0120838EEE90E09B838A83E2
:1001100009C08A819B81FC0110828A819B810196A2
:100120009B838A838A819B81883F910590F3898193
:100130008F5F898389818F3000F30F900F900F902C
:10014000DF91CF910895CF93DF9300D0CDB7DEB785
:100150008DEE90E0FC0180818A8319821BC08DEEB8
:1001600090E029812295207FFC0120838FEE90E092
:10017000FC018081882F90E0807C9927892B39F4BD
:100180008DEE90E02A81FC01208389810CC0898159
:100190008F5F898389818F3010F38DEE90E02A8103
:1001A000FC0120838FEF0F900F90DF91CF91089586
:1001B000CF93DF9300D0CDB7DEB78FEE90E0FC0198
:1001C0008081882F90E0807C9927892B11F48FEF14
:1001D0001CC08EEE90E0FC01808189838981807E45
:1001E0008A838A81803231F08A81803419F08A8151
:1001F000803A11F48A8109C089818F718A838A814A
:10020000882311F08A8101C080E00F900F90DF9168
:10021000CF910895CF93DF9300D01F92CDB7DEB773
:100220009B838A83198210C08981882F90E02A815C
:100230003B81820F931F2AEF30E0F9012081FC01FE
:10024000208389818F5F89838981282F30E08FEE19
:1002500090E0FC018081882F90E08F70992728170B
:10026000390714F30F900F900F90DF91CF910895FD
:10027000CF93DF931F92CDB7DEB7898388ED90E0EF
:1002800021E0FC01208382EE90E026E0FC01208347
:1002900083EE90E024E0FC01208384EE90E023E1F3
:1002A000FC01208381E00F90DF91CF910895CF93DF
:1002B000DF931F92CDB7DEB789838981D9DF882389
:1002C00011F480E00BC011DF88ED90E028ED30E004
:1002D000F90120812260FC01208381E00F90DF91F1
:1002E000CF910895CF93DF93CDB7DEB72A970FB69E
:1002F000F894DEBF0FBECDBF9A87898789859A851E
:10030000FC0181818C3039F589859A85FC018185D4
:100310008036D9F48DEE90E029853A85F901208167
:100320002295207FFC0120838FEE90E02FEE30E0BD
:10033000F90120812F73FC0120838EEE90E0FC01F7
:10034000108289859A85FC01108289859A85FC0135
:1003500011860C94FD0BF7DE8C838C818F3F11F49A
:100360000C94F60B89859A8520E6FC012187898506
:100370009A852C81FC0120838DEE90E02C812295C2
:10038000207FFC0120838EEE90E09B838A8309C04E
:100390008A819B81FC0110828A819B8101969B83CB
:1003A0008A838A819B81883F910590F389859A850C
:1003B000FC018181882F90E0092E000CAA0BBB0B59
:1003C00041E050E02AE030E0841B950B2817390704
:1003D00010F40C94F00B865B9F4FFC010C940115FC
:1003E00089859A85FC018385882309F469C083EF98
:1003F00090E029853A852E5F3F4F2D5F3F4FF901F1
:100400002081422F440F440F440F29853A852E5FE7
:100410003F4F2E5F3F4FF90120812295269527708F
:10042000240FFC01208382EF90E029853A852E5F1E
:100430003F4F2E5F3F4FF9012081422F440F440F61
:10044000440F29853A852E5F3F4F2F5F3F4FF901BB
:100450002081229526952770240FFC01208381EFAF
:1004600090E029853A852E5F3F4F2F5F3F4FF9017E
:100470002081422F440F440F440F29853A852E5F77
:100480003F4FF9012081229526952770240FFC010A
:10049000208380EF90E029853A852E5F3F4FF90158
:1004A0002081220F220F220FFC0120838FEE90E08B
:1004B0002FEE30E0F90120812061FC01208330C063
:1004C00083EF90E029853A852E5F3F4F2F5F3F4FA6
:1004D000F9012081422F4295440F407E29853A85BB
:1004E0002E5F3F4FF9012081269526952695240FF2
:1004F000FC01208382EF90E029853A852E5F3F4FF3
:10050000F90120812295220F207EFC0120838FEEAD
:1005100090E02FEE30E0F90120812F7EFC01208356
:10052000198213C08AEF90E029853A85F901478145
:1005300050852981222F30E0240F351FF9012081B9
:10054000FC01208389818F5F898389859A85FC01DD
:1005500096818981891730F389859A85FC01828586
:10056000882351F080EF90E020EF30E0F901208106
:100570002460FC01208309C080EF90E020EF30E090
:10058000F90120812B7FFC0120838FEE90E02FEE7C
:1005900030E0F901408129853A85F9012681242B33
:1005A000FC0120838FEE90E02FEE30E0F9012081F6
:1005B0002F73FC0120838FEE90E02FEE30E0F901E5
:1005C00020812064FC0120830C94F50B89859A8599
:1005D000FC018385882309F469C083EF90E02985B5
:1005E0003A852E5F3F4F2D5F3F4FF9012081422F0B
:1005F000440F440F440F29853A852E5F3F4F2E5FED
:100600003F4FF9012081229526952770240FFC0188
:10061000208382EF90E029853A852E5F3F4F2E5F41
:100620003F4FF9012081422F440F440F440F298589
:100630003A852E5F3F4F2F5F3F4FF9012081229572
:1006400026952770240FFC01208381EF90E02985F7
:100650003A852E5F3F4F2F5F3F4FF9012081422F98
:10066000440F440F440F29853A852E5F3F4FF9010F
:100670002081229526952770240FFC01208380EF8E
:1006800090E029853A852E5F3F4FF9012081220FA6
:10069000220F220FFC0120838FEE90E02FEE30E03E
:1006A000F90120812061FC01208330C083EF90E0BC
:1006B00029853A852E5F3F4F2F5F3F4FF9012081FB
:1006C000422F4295440F407E29853A852E5F3F4F49
:1006D000F9012081269526952695240FFC0120837B
:1006E00082EF90E029853A852E5F3F4FF901208106
:1006F0002295220F207EFC0120838FEE90E02FEECA
:1007000030E0F90120812F7EFC012083198213C083
:100710008AEF90E029853A85F90147815085298142
:10072000222F30E0240F351FF9012081FC012083A6
:1007300089818F5F898389859A85FC01968189816A
:10074000891730F389859A85FC01128680EF90E045
:1007500020EF30E0F90120812B7FFC0120838FEE18
:1007600090E02FEE30E0F901408129853A85F901CA
:100770002681242BFC0120838FEE90E02FEE30E0C9
:10078000F90120812F73FC0120838FEE90E02FEE82
:1007900030E0F90120812064FC0120830C94F50BEA
:1007A00089859A85FC018385882309F469C083EFD4
:1007B00090E029853A852E5F3F4F2D5F3F4FF9012D
:1007C0002081422F440F440F440F29853A852E5F24
:1007D0003F4F2E5F3F4FF9012081229526952770CC
:1007E000240FFC01208382EF90E029853A852E5F5B
:1007F0003F4F2E5F3F4FF9012081422F440F440F9E
:10080000440F29853A852E5F3F4F2F5F3F4FF901F7
:100810002081229526952770240FFC01208381EFEB
:1008200090E029853A852E5F3F4F2F5F3F4FF901BA
:100830002081422F440F440F440F29853A852E5FB3
:100840003F4FF9012081229526952770240FFC0146
:10085000208380EF90E029853A852E5F3F4FF90194
:100860002081220F220F220FFC0120838FEE90E0C7
:100870002FEE30E0F90120812061FC01208330C09F
:1008800083EF90E029853A852E5F3F4F2F5F3F4FE2
:10089000F9012081422F4295440F407E29853A85F7
:1008A0002E5F3F4FF9012081269526952695240F2E
:1008B000FC01208382EF90E029853A852E5F3F4F2F
:1008C000F90120812295220F207EFC0120838FEEEA
:1008D00090E02FEE30E0F90120812F7EFC01208393
:1008E00089859A8521E0FC01228780EF90E020EF46
:1008F00030E0F90120812460FC0120838FEE90E03C
:100900002FEE30E0F901408129853A85F9012681F1
:10091000242BFC0120838FEE90E02FEE30E0F901D4
:1009200020812F73FC0120838FEE90E02FEE30E0CA
:10093000F90120812064FC01208357C71D821E829B
:100940001F82188627EF30E0CE0105960396FC0142
:100950008081482F440F440F440FCE010596029624
:10096000FC018081829586958770840FF9018083D0
:1009700026EF30E0CE0105960296FC018081482FDB
:10098000440F440F440FCE0105960196FC0180816F
:10099000829586958770840FF901808325EF30E07A
:1009A000CE0105960196FC018081482F440F440F2B
:1009B000440FCE010596FC01808182958695877053
:1009C000840FF901808384EF90E09E012B5F3F4FFD
:1009D000F9012081220F220F220FFC0120838FEECC
:1009E00090E02FEE30E0F901408129853A85F90148
:1009F0002681242BFC01208384EF90E024EF30E05B
:100A0000F90120812B7FFC01208384EF90E024EF0B
:100A100030E0F90120812E7FFC0120838FEE90E0F1
:100A20002FEE30E0F90120812F73FC0120838FEE3F
:100A300090E02FEE30E0F90120812068FC01208356
:100A4000D4C61D821E821F82188627EF30E0CE0199
:100A500005960396FC018081482F440F440F440FF4
:100A6000CE0105960296FC0180818295869587705D
:100A7000840FF901808326EF30E0CE0105960296BF
:100A8000FC018081482F440F440F440FCE0105968E
:100A90000196FC018081829586958770840FF9010B
:100AA000808325EF30E0CE0105960196FC01808120
:100AB000482F440F440F440FCE010596FC0180815E
:100AC000829586958770840FF901808384EF90E08A
:100AD0009E012B5F3F4FF9012081220F220F220F31
:100AE000FC0120838FEE90E02FEE30E0F901408191
:100AF00029853A85F9012681242BFC0120838985EB
:100B00009A85FC01128684EF90E024EF30E0F90131
:100B100020812460FC01208380EF90E020EF30E012
:100B2000F90120812B7FFC01208384EF90E024EFEA
:100B300030E0F90120812E7FFC0120838FEE90E0D0
:100B40002FEE30E0F90120812F73FC0120838FEE1E
:100B500090E02FEE30E0F90120812068FC01208335
:100B600044C61D821E821F82188627EF30E0CE0108
:100B700005960396FC018081482F440F440F440FD3
:100B8000CE0105960296FC0180818295869587703C
:100B9000840FF901808326EF30E0CE01059602969E
:100BA000FC018081482F440F440F440FCE0105966D
:100BB0000196FC018081829586958770840FF901EA
:100BC000808325EF30E0CE0105960196FC018081FF
:100BD000482F440F440F440FCE010596FC0180813D
:100BE000829586958770840FF901808384EF90E069
:100BF0009E012B5F3F4FF9012081220F220F220F10
:100C0000FC0120838FEE90E02FEE30E0F90140816F
:100C100029853A85F9012681242BFC0120838985C9
:100C20009A8521E0FC01228784EF90E024EF30E0F8
:100C3000F90120812460FC01208380EF90E020EF07
:100C400030E0F90120812460FC0120838FEE90E0E8
:100C50002FEE30E0F90120812F7DFC01208384EF0D
:100C600090E024EF30E0F90120812E7FFC01208309
:100C70008FEE90E02FEE30E0F90120812F73FC0120
:100C800020838FEE90E02FEE30E0F9012081206884
:100C9000FC012083AAC589859A85FC018385882368
:100CA00009F469C083EF90E029853A852E5F3F4FB4
:100CB0002D5F3F4FF9012081422F440F440F440F15
:100CC00029853A852E5F3F4F2E5F3F4FF9012081E6
:100CD000229526952770240FFC01208382EF90E057
:100CE00029853A852E5F3F4F2E5F3F4FF9012081C6
:100CF000422F440F440F440F29853A852E5F3F4F02
:100D00002F5F3F4FF9012081229526952770240FF0
:100D1000FC01208381EF90E029853A852E5F3F4FCB
:100D20002F5F3F4FF9012081422F440F440F440FA2
:100D300029853A852E5F3F4FF9012081229526951E
:100D40002770240FFC01208380EF90E029853A85ED
:100D50002E5F3F4FF9012081220F220F220FFC014D
:100D600020838FEE90E02FEE30E0F90120812061AA
:100D7000FC01208330C083EF90E029853A852E5F07
:100D80003F4F2F5F3F4FF9012081422F4295440F83
:100D9000407E29853A852E5F3F4FF90120812695B7
:100DA00026952695240FFC01208382EF90E029856B
:100DB0003A852E5F3F4FF90120812295220F207E38
:100DC000FC0120838FEE90E02FEE30E0F9012081CE
:100DD0002F7EFC0120838FEF9FEFDC018D839E83AC
:100DE000AF83B88727EF30E0CE0105960396FC016C
:100DF0008081482F440F440F440FCE010596029680
:100E0000FC018081829586958770840FF90180832B
:100E100026EF30E0CE0105960296FC018081482F36
:100E2000440F440F440FCE0105960196FC018081CA
:100E3000829586958770840FF901808325EF30E0D5
:100E4000CE0105960196FC018081482F440F440F86
:100E5000440FCE010596FC018081829586958770AE
:100E6000840FF901808384EF90E09E012B5F3F4F58
:100E7000F9012081220F220F220FFC0120838FEE27
:100E800090E02FEE30E0F901408129853A85F901A3
:100E90002681242BFC01208384EF90E024EF30E0B6
:100EA000F90120812B7FFC01208384EF90E024EF67
:100EB00030E0F90120812160FC0120838FEE90E079
:100EC0002FEE30E0F90120812F73FC0120838FEE9B
:100ED00090E02FEE30E0F90120812068FC012083B2
:100EE00084C489859A85FC018385882309F469C0B7
:100EF00083EF90E029853A852E5F3F4F2D5F3F4F6E
:100F0000F9012081422F440F440F440F29853A856F
:100F10002E5F3F4F2E5F3F4FF9012081229526958E
:100F20002770240FFC01208382EF90E029853A8509
:100F30002E5F3F4F2E5F3F4FF9012081422F440F1C
:100F4000440F440F29853A852E5F3F4F2F5F3F4F57
:100F5000F9012081229526952770240FFC0120831A
:100F600081EF90E029853A852E5F3F4F2F5F3F4FFD
:100F7000F9012081422F440F440F440F29853A85FF
:100F80002E5F3F4FF9012081229526952770240F6F
:100F9000FC01208380EF90E029853A852E5F3F4F4A
:100FA000F9012081220F220F220FFC0120838FEEF6
:100FB00090E02FEE30E0F90120812061FC012083D8
:100FC00030C083EF90E029853A852E5F3F4F2F5F39
:100FD0003F4FF9012081422F4295440F407E2985E1
:100FE0003A852E5F3F4FF90120812695269526955B
:100FF000240FFC01208382EF90E029853A852E5F43
:101000003F4FF90120812295220F207EFC01208391
:101010008FEE90E02FEE30E0F90120812F7EFC0171
:1010200020838FEF9FEFDC018D839E83AF83B88792
:1010300027EF30E0CE0105960396FC018081482F12
:10104000440F440F440FCE0105960296FC018081A7
:10105000829586958770840FF901808326EF30E0B2
:10106000CE0105960296FC018081482F440F440F63
:10107000440FCE0105960196FC01808182958695EC
:101080008770840FF901808325EF30E0CE0105964B
:101090000196FC018081482F440F440F440FCE017C
:1010A0000596FC018081829586958770840FF901F1
:1010B000808384EF90E09E012B5F3F4FF9012081F8
:1010C000220F220F220FFC0120838FEE90E02FEEE3
:1010D00030E0F901408129853A85F9012681242BE8
:1010E000FC01208389859A85FC01128684EF90E0BB
:1010F00024EF30E0F90120812460FC01208380EF9F
:1011000090E020EF30E0F90120812B7FFC0120836B
:1011100084EF90E024EF30E0F90120812160FC01B0
:1011200020838FEE90E02FEE30E0F90120812F73C5
:10113000FC0120838FEE90E02FEE30E0F90120815A
:101140002068FC01208351C389859A85FC01838531
:10115000882309F469C083EF90E029853A852E5FE2
:101160003F4F2D5F3F4FF9012081422F440F440F25
:10117000440F29853A852E5F3F4F2E5F3F4FF9017F
:101180002081229526952770240FFC01208382EF71
:1011900090E029853A852E5F3F4F2E5F3F4FF90142
:1011A0002081422F440F440F440F29853A852E5F3A
:1011B0003F4F2F5F3F4FF9012081229526952770E1
:1011C000240FFC01208381EF90E029853A852E5F72
:1011D0003F4F2F5F3F4FF9012081422F440F440FB3
:1011E000440F29853A852E5F3F4FF90120812295D2
:1011F00026952770240FFC01208380EF90E029853D
:101200003A852E5F3F4FF9012081220F220F220FD6
:10121000FC0120838FEE90E02FEE30E0F901208179
:101220002061FC01208330C083EF90E029853A855E
:101230002E5F3F4F2F5F3F4FF9012081422F429594
:10124000440F407E29853A852E5F3F4FF90120816A
:10125000269526952695240FFC01208382EF90E0A9
:1012600029853A852E5F3F4FF90120812295220F73
:10127000207EFC0120838FEE90E02FEE30E0F9011C
:1012800020812F7EFC0120838FEF9FEFDC018D8377
:101290009E83AF83B88727EF30E0CE010596039693
:1012A000FC018081482F440F440F440FCE01059666
:1012B0000296FC018081829586958770840FF901E2
:1012C000808326EF30E0CE0105960296FC018081F6
:1012D000482F440F440F440FCE0105960196FC01A0
:1012E0008081829586958770840FF901808325EF30
:1012F00030E0CE0105960196FC018081482F440F15
:10130000440F440FCE010596FC018081829586959D
:101310008770840FF901808384EF90E09E012B5F3A
:101320003F4FF9012081220F220F220FFC01208361
:101330008FEE90E02FEE30E0F901408129853A856B
:10134000F9012681242BFC01208389859A8521E0DF
:10135000FC01228784EF90E024EF30E0F901208146
:101360002460FC01208380EF90E020EF30E0F90161
:1013700020812460FC0120838FEE90E02FEE30E08E
:10138000F90120812F7DFC01208384EF90E024EF80
:1013900030E0F90120812160FC0120838FEE90E094
:1013A0002FEE30E0F90120812F73FC0120838FEEB6
:1013B00090E02FEE30E0F90120812068FC012083CD
:1013C00014C2198213C08AEF90E029853A85F90189
:1013D000478150852981222F30E0240F351FF901E4
:1013E0002081FC01208389818F5F898389859A858B
:1013F000FC0196818981891730F31D821E821F822C
:10140000188627EF30E0CE0105960396FC01808117
:10141000482F440F440F440FCE0105960296FC015D
:101420008081829586958770840FF901808326EFED
:1014300030E0CE0105960296FC018081482F440FD2
:10144000440F440FCE0105960196FC0180818295E0
:1014500086958770840FF901808325EF30E0CE01F7
:1014600005960196FC018081482F440F440F440FDC
:10147000CE010596FC018081829586958770840F48
:10148000F901808384EF90E09E012B5F3F4FF901CB
:101490002081220F220F220FFC0120838FEE90E08B
:1014A0002FEE30E0F901408129853A85F901268146
:1014B000242BFC01208389859A8521E0FC01228769
:1014C00084EF90E024EF30E0F90120812460FC01FA
:1014D000208380EF90E020EF30E0F901208124604C
:1014E000FC0120838FEE90E02FEE30E0F9012081A7
:1014F0002062FC01208384EF90E024EF30E0F901CA
:1015000020812E7FFC0120838FEE90E02FEE30E0D3
:10151000F90120812F73FC0120838FEE90E02FEEE4
:1015200030E0F90120812068FC0120835EC18985BB
:101530009A85FC018385882309F469C083EF90E0D4
:1015400029853A852E5F3F4F2D5F3F4FF90120815E
:10155000422F440F440F440F29853A852E5F3F4F99
:101560002E5F3F4FF9012081229526952770240F89
:10157000FC01208382EF90E029853A852E5F3F4F62
:101580002E5F3F4FF9012081422F440F440F440F3B
:1015900029853A852E5F3F4F2F5F3F4FF90120810C
:1015A000229526952770240FFC01208381EF90E07F
:1015B00029853A852E5F3F4F2F5F3F4FF9012081EC
:1015C000422F440F440F440F29853A852E5F3F4F29
:1015D000F9012081229526952770240FFC01208394
:1015E00080EF90E029853A852E5F3F4FF9012081F9
:1015F000220F220F220FFC0120838FEE90E02FEEAE
:1016000030E0F90120812061FC01208330C083EFAC
:1016100090E029853A852E5F3F4F2F5F3F4FF901BC
:101620002081422F4295440F407E29853A852E5FC6
:101630003F4FF9012081269526952695240FFC0120
:10164000208382EF90E029853A852E5F3F4FF90194
:1016500020812295220F207EFC0120838FEE90E0D6
:101660002FEE30E0F90120812F7EFC0120831982CA
:1016700013C08AEF90E029853A85F90147815085AA
:101680002981222F30E0240F351FF9012081FC0130
:10169000208389818F5F898389859A85FC01968162
:1016A0008981891730F38FEF9FEFDC018D839E8353
:1016B000AF83B88727EF30E0CE0105960396FC0193
:1016C0008081482F440F440F440FCE0105960296A7
:1016D000FC018081829586958770840FF901808353
:1016E00026EF30E0CE0105960296FC018081482F5E
:1016F000440F440F440FCE0105960196FC018081F2
:10170000829586958770840FF901808325EF30E0FC
:10171000CE0105960196FC018081482F440F440FAD
:10172000440FCE010596FC018081829586958770D5
:10173000840FF901808384EF90E09E012B5F3F4F7F
:10174000F9012081220F220F220FFC0120838FEE4E
:1017500090E02FEE30E0F901408129853A85F901CA
:101760002681242BFC01208389859A8521E0FC01B8
:10177000228784EF90E024EF30E0F901208124609B
:10178000FC01208380EF90E020EF30E0F901208120
:101790002460FC0120838FEE90E02FEE30E0F90111
:1017A00020812062FC01208384EF90E024EF30E070
:1017B000F90120812160FC0120838FEE90E02FEE63
:1017C00030E0F90120812F73FC0120838FEE90E03F
:1017D0002FEE30E0F90120812068FC01208305C054
:1017E00089859A85FC011186000007C089859A8544
:1017F0002FE1FC0121878FEF01C080E02A960FB610
:10180000F894DEBF0FBECDBFDF91CF910895CF9387
:10181000DF9300D000D0CDB7DEB79C838B838B8164
:101820009C81FC0181858A838A81882331F08A81A9
:101830008F3119F08A818F3F11F482E011C18DEE52
:1018400090E02B813C81F90120812295207FFC01D1
:1018500020830E94D8008A838A81882F90E080327A
:10186000910589F0813291051CF4892B49F0E2C081
:101870008034910509F4CAC0803A910521F0DAC09C
:1018800081E08983ECC08FEE90E0FC018081282FFD
:101890002F708B819C81FC0126838B819C81FC01B4
:1018A000878190850E940A0180EF90E0FC01808191
:1018B000882F90E0847099279595879595958795C1
:1018C000282F8B819C81FC0122878FEE90E0FC0108
:1018D0008081882F90E080719927959587959595BF
:1018E00087959595879595958795892B09F454C08B
:1018F0008B819C8121E0FC0123878B819C81029656
:10190000039623EF30E0F901208126952695269550
:10191000FC0120838B819C810296029622EF30E0AD
:10192000F9012081422F46954695469523EF30E0F8
:10193000F90120812295220F207E240FFC012083B3
:101940008B819C810296019621EF30E0F901208184
:10195000422F46954695469522EF30E0F9012081C9
:101960002295220F207E240FFC0120838B819C81F5
:10197000029620EF30E0F9012081422F46954695EE
:10198000469521EF30E0F90120812295220F207E3B
:10199000240FFC01208326C08B819C81FC011386CF
:1019A0008B819C810296019623EF30E0F901208122
:1019B000229526952770FC0120838B819C810296BD
:1019C00022EF30E0F9012081422F42954695477081
:1019D00023EF30E0F9012081220F220F220F240F84
:1019E000FC0120838B819C812A81FC0121878FEE61
:1019F00090E02FEE30E0F90120812F73FC0120836D
:101A00008EEE90E0FC011082198229C08B819C81AE
:101A10002A81FC0121878FEE90E02FEE30E0F90162
:101A200020812F73FC0120838EEE90E0FC01108258
:101A3000198215C08B819C812A81FC0121878FEE40
:101A400090E02FEE30E0F90120812F73FC0120831C
:101A50008EEE90E0FC01108282E089830000898193
:101A60000F900F900F900F90DF91CF910895CF932B
:101A7000DF931F92CDB7DEB7898384E890E0FC0145
:101A8000118210828981882381F088E890E0298181
:101A9000222F30E06AEF629FA001639F500D112456
:101AA0009A01FC013183208307C088E890E024EC90
:101AB00039E0FC01318320838FE690E022E0FC01D5
:101AC000208381E890E02BE0FC012083898188233A
:101AD000A1F48091400190914101A0914201B09107
:101AE00043010A96A11DB11D8093400190934101CD
:101AF000A0934201B0934301BCD40F90DF91CF91EA
:101B000008951F920F9200905F000F921124009091
:101B10005B000F922F933F934F935F936F937F934D
:101B20008F939F93AF93BF93EF93FF93CF93DF93E5
:101B3000CDB7DEB78FE690E0FC0180818FE690E0C4
:101B4000FC01108288E890E024EC39E0FC0131834C
:101B500020838091400190914101A0914201B09178
:101B600043010A96A11DB11D80934001909341014C
:101B7000A0934201B09343017CD48FE690E02FE61E
:101B800030E0F90120812260FC012083DF91CF91B8
:101B9000FF91EF91BF91AF919F918F917F916F9145
:101BA0005F914F913F912F910F9000925B000F90AA
:101BB00000925F000F901F901895CF93DF9300D095
:101BC00000D01F92CDB7DEB789834A835B836C83D5
:101BD0007D8389EC90E0FC0110828AEC90E02EEC91
:101BE00030E0F9012081FC01208388EC90E020E4C2
:101BF000FC0120838AEC90E026E0FC0120838DEC40
:101C000090E0FC0110828CEC90E0FC0110828DECE5
:101C100090E0FC0110828CEC90E02FECFC01208322
:101C200088EC90E028EC30E0F90120812260FC0192
:101C30002083822F882311F480E03FC088EC90E05D
:101C400028EC30E0F90120812062FC01208389EC3E
:101C500090E029EC30E0F90120812B7FFC0120830A
:101C600081EC90E021EC30E0F9012081322F2981D4
:101C70002470232BFC0120838AEC90E029812873B7
:101C8000FC0120838AEC90E02AEC30E0F90120810D
:101C9000422F2981222F30E023703327220F331F58
:101CA000242BFC01208389EC90E029EC30E0F90141
:101CB00020812861FC01208381E00F900F900F901C
:101CC0000F900F90DF91CF910895CF93DF931F92E4
:101CD000CDB7DEB78983000088EC90E0FC018081FD
:101CE000882F90E08072992795958795959587958F
:101CF000959587959595879595958795892B61F30A
:101D00008EEC90E02981FC01208389810F90DF9186
:101D1000CF910895CF93DF931F92CDB7DEB7000028
:101D200088EC90E0FC018081881F8827881F882F1D
:101D300090E09927892BA1F38EEC90E0FC01808143
:101D4000898389810F90DF91CF910895CF93DF939D
:101D5000CDB7DEB7F89481E0DF91CF910895CF93AE
:101D6000DF9300D0CDB7DEB79A8389838FE590E00B
:101D700029813A81F9012081FC0120830F900F9085
:101D8000DF91CF910895CF93DF93CDB7DEB760E8B1
:101D90008EE311D060E085E10ED060E087E10BD0EA
:101DA0006CE186E108D0882311F081E001C080E079
:101DB000DF91CF910895CF93DF9300D0CDB7DEB7F9
:101DC00089836A8380EDC9D3882319F017D481E011
:101DD00006C089812AD48A8128D410D480E00F904B
:101DE0000F90DF91CF9108950F931F93CF93DF93BF
:101DF00000D000D01F92CDB7DEB78A837C836B837F
:101E00004D8380EDAAD3882311F081E031C08A810F
:101E10000CD481EDE7D3882319F0F0D382E028C0F9
:101E200019820EC08981882F90E02B813C81890125
:101E3000080F191F22D4F801808389818F5F89835D
:101E40008981282F30E08D81882F90E00197281715
:101E5000390744F38D81882F90E001972B813C81D5
:101E60008901080F191F20D4F8018083C7D380E0AF
:101E70000F900F900F900F900F90DF91CF911F91C7
:101E80000F910895CF93DF93CDB7DEB765970FB667
:101E9000F894DEBF0FBECDBF8FEF8E878FEF8F8799
:101EA0008FEF888B8FEF898B8FEF8A8B8FEF8B8BE8
:101EB0008FEF8C8BCE010E9647E0BC018DE194DF55
:101EC0008E85882F90E0982F88279C018F85882FFA
:101ED00090E09927820F931FCC01A0E0B0E08A83A5
:101EE0009B83AC83BD838889882F90E0982F8827B7
:101EF0009C018989882F90E09927820F931FCC013C
:101F0000A0E0B0E08E839F83A887B9878A89882F55
:101F100090E0982F88279C018B89882F90E0992743
:101F2000820F931FCC01A0E0B0E08A879B87AC872B
:101F3000BD878FE590E0FC0180818D8B07DF898371
:101F400013C08A819B8190934501809344018E81C7
:101F50009F8190934701809346018A859B8590934A
:101F600049018093480119828981882351F7CE0164
:101F70004596F5DE65960FB6F894DEBF0FBECDBF71
:101F8000DF91CF910895CF93DF93CDB7DEB7A197BF
:101F90000FB6F894DEBF0FBECDBFF8948AE290E092
:101FA0002AE230E0F90120812068FC0120838DE2E3
:101FB00090E02DE230E0F90120812064FC012083D3
:101FC00080E091E090935F0180935E0180915E01DB
:101FD00090915F01909361018093600140E855E228
:101FE00060E070E083E0E9DD88ED90E021E0FC0155
:101FF000208381E00E945701000089ED90E0FC0100
:102000008081882F90E084709927892BB1F38AED25
:1020100090E02FEFFC0120830E94750080E090E7A4
:1020200090934D0180934C0186E591E0909352018D
:102030008093510181E080934B0186E080935001B1
:102040007CD28EE091E0F9D49EDE89838981882359
:1020500099F08981882F90E0292F2F938F9384E125
:1020600091E0892F8F9384E191E08F93D3D40F90E7
:102070000F900F900F9003C083E391E0DED48AECC1
:1020800090E090934501809344018AEC90E0909316
:102090004701809346018AEC90E090934901809338
:1020A000480180E090E0A8ECB2E48A839B83AC8393
:1020B000BD832BEA3AEA4AEA5EE36A817B818C813E
:1020C0009D811AD4DC01CB018E839F83A887B987B9
:1020D00020E030E040E85EE36A817B818C819D8175
:1020E0000BD4DC01CB018A879B87AC87BD8720E0BE
:1020F00030E040E85FE36E817F8188859985EBD28F
:1021000088231CF481E08E87A7C020E03FEF4FE7D3
:1021100057E46A857B858C859D85EAD318160CF07B
:1021200074C020E030E04AE754E46A817B818C810E
:102130009D81D5D2DC01CB018F87988BA98BBA8B7F
:1021400020E030E04AE753E46F85788989899A89ED
:10215000D3D3DC01CB018B8B9C8BAD8BBE8B20E072
:1021600030E040E85FE36B897C898D899E89B3D23A
:1021700088232CF481E090E0988F8F8B3BC020E087
:102180003FEF4FE757E46B897C898D899E89B0D3F7
:1021900018163CF520E030E040E251E46F85788984
:1021A00089899A89A9D3DC01CB01BC01CD01FFD279
:1021B000DC01CB01988F8F8B0FC089E190E09A8F63
:1021C000898F898D9A8D0197F1F79A8F898F8F89E1
:1021D000988D0197988F8F8B8F89988D892B69F7B0
:1021E0003BC06B897C898D899E89E1D2DC01CB0162
:1021F000988F8F8B8F89988D9C8F8B8F8B8D9C8DDB
:102200000197F1F79C8F8B8F27C020E030E04FE7DC
:1022100053E46E817F81888599856AD31816A4F46A
:102220006A857B858C859D85C2D2DC01CB019E8F22
:102230008D8F8D8D9E8D98A38F8F8F8D98A10197F7
:10224000F1F798A38F8F0EC06E817F818885998565
:10225000AED2DC01CB018E878E8589A389A18A95B8
:10226000F1F789A38AE003DC80E090E0A1960FB645
:10227000F894DEBF0FBECDBFDF91CF910895CF930D
:10228000DF93CDB7DEB7A3970FB6F894DEBF0FBECE
:10229000CDBF79DE1A8219827894F4DD89819A8122
:1022A00001969A83898380E090E0A8ECB2E48B8366
:1022B0009C83AD83BE832BEA3AEA4AEA5EE36B81F4
:1022C0007C818D819E8118D3DC01CB018F8398871F
:1022D000A987BA8720E030E040E85EE36B817C812B
:1022E0008D819E8109D3DC01CB018B879C87AD87D3
:1022F000BE8720E030E040E85FE36F817885898524
:102300009A85E9D188231CF481E08F87ABC020E057
:102310003FEF4FE757E46B857C858D859E85E8D23E
:1023200018160CF078C020E030E04AE754E46B81E6
:102330007C818D819E81D3D1DC01CB01888B998BEF
:10234000AA8BBB8B20E030E04AE753E468897989A7
:102350008A899B89D1D2DC01CB018C8B9D8BAE8B82
:10236000BF8B20E030E040E85FE36C897D898E8997
:102370009F89B1D188232CF481E090E0998F888FD8
:102380003DC020E03FEF4FE757E46C897D898E899F
:102390009F89AED218164CF520E030E040E251E4BF
:1023A000688979898A899B89A7D2DC01CB01BC0124
:1023B000CD01FDD1DC01CB01998F888F0FC089E160
:1023C00090E09B8F8A8F8A8D9B8D0197F1F79B8F71
:1023D0008A8F888D998D0197998F888F888D998D97
:1023E000892B69F78BA18F873DC06C897D898E8988
:1023F0009F89DDD1DC01CB01998F888F888D998DE4
:102400009D8F8C8F8C8D9D8D0197F1F79D8F8C8F7B
:102410008BA18F8727C020E030E04FE753E46F8126
:10242000788589859A8564D21816A4F46B857C8595
:102430008D859E85BCD1DC01CB019F8F8E8F8E8DCB
:102440009F8D99A388A388A199A10197F1F799A3DA
:1024500088A323CF6F81788589859A85A8D1DC01EF
:10246000CB018F878F858AA38AA18A95F1F78AA3EA
:1024700014CFCF93DF9300D000D0CDB7DEB78091DB
:10248000400190914101A0914201B091430128EE99
:1024900033E040E050E0BC01CD0191D2DC01CB0142
:1024A000892B8A2B8B2B09F041C08091440190919C
:1024B0004501892F9927809356018091440190917D
:1024C0004501809357018091460190914701892FE2
:1024D00099278093580180914601909147018093FC
:1024E00059018091480190914901892F9927809342
:1024F0005A01809148019091490180935B0100004D
:102500008AE491E00E9472018823D1F700008AE4F6
:1025100091E07DD98823D9F7109256011092570186
:10252000109258011092590110925A010F900F9079
:102530000F900F90DF91CF910895CF93DF93CDB798
:10254000DEB789EB90E0FC01108288EB90E028EF89
:10255000FC012083DF91CF910895CF93DF9300D0CA
:10256000CDB7DEB78A838CEB90E024EAFC012083B0
:1025700000008CEB90E0FC0180818823D4F789EB8C
:1025800090E0FC018081887F89838981883029F0EF
:102590008981803111F081E020C08BEB90E02A81AD
:1025A000FC0120838CEB90E024E8FC0120830000F8
:1025B0008CEB90E0FC0180818823D4F789EB90E0DC
:1025C000FC018081887F89838981883129F0898114
:1025D000803411F081E001C080E00F900F90DF9116
:1025E000CF910895CF93DF931F92CDB7DEB7898344
:1025F0008981B3DF0F90DF91CF910895CF93DF935F
:10260000CDB7DEB78CEB90E024E9FC01208300001D
:102610008CEB90E0FC018081882F90E080719927FD
:10262000892BB1F7DF91CF910895CF93DF9300D03D
:10263000CDB7DEB78A838BEB90E02A81FC01208343
:102640008CEB90E024E8FC01208300008CEB90E010
:10265000FC0180818823D4F789EB90E0FC01808124
:10266000887F89838981883211F081E001C080E010
:102670000F900F90DF91CF910895CF93DF93CDB757
:10268000DEB78CEB90E024ECFC01208300008CEBA7
:1026900090E0FC0180818823D4F78BEB90E0FC0173
:1026A0008081DF91CF910895CF93DF93CDB7DEB7CF
:1026B0008CEB90E024E8FC01208300008CEB90E0A0
:1026C000FC0180818823D4F78BEB90E0FC018081B2
:1026D000DF91CF91089597D008F481E008950CD050
:1026E000CDC0C5D040F0BCD030F021F45F3F19F030
:1026F000AEC05111F7C0B1C0D2D098F39923C9F33D
:102700005523B1F3951B550BBB27AA2762177307F7
:10271000840738F09F5F5F4F220F331F441FAA1FAB
:10272000A9F333D00E2E3AF0E0E830D0915050406B
:10273000E695001CCAF729D0FE2F27D0660F771F19
:10274000881FBB1F261737074807AB07B0E809F0FB
:10275000BB0B802DBF01FF2793585F4F2AF09E3F90
:10276000510568F074C0BEC05F3FECF3983EDCF3E7
:10277000869577956795B795F7959F5FC9F7880F09
:10278000911D9695879597F90895E1E0660F771F5B
:10279000881FBB1F621773078407BA0720F0621BEC
:1027A000730B840BBA0BEE1F88F7E09508957FD06A
:1027B00088F09F5790F0B92F9927B751A0F0D1F02A
:1027C000660F771F881F991F1AF0BA95C9F712C0B4
:1027D000B13081F086D0B1E0089583C0672F782FA3
:1027E0008827B85F39F0B93FCCF386957795679520
:1027F000B395D9F73EF490958095709561957F4F8C
:102800008F4F9F4F0895990F0008550FAA0BE0E8CE
:10281000FEEF16161706E807F907C0F012161306A2
:10282000E407F50798F0621B730B840B950B39F4E2
:102830000A2661F0232B242B252B21F408950A2648
:1028400009F4A140A6958FEF811D811D089597F988
:102850009F6780E870E060E008959FEF80EC089546
:1028600000240A941616170618060906089500246F
:102870000A9412161306140605060895092E0394E9
:10288000000C11F4882352F0BB0F40F4BF2B11F45D
:1028900060FF04C06F5F7F4F8F4F9F4F089557FDBC
:1028A0009058440F551F59F05F3F71F04795880FBE
:1028B00097FB991F61F09F3F79F087950895121655
:1028C00013061406551FF2CF4695F1DF08C0161601
:1028D00017061806991FF1CF8695710561050894B2
:1028E0000895E894BB2766277727CB0197F90895C9
:1028F0008ADF08F48FEF08950BD0C0CFB1DF28F046
:10290000B6DF18F0952309F0A2CFA7CF1124EACFA4
:10291000C6DFA0F3959FD1F3950F50E0551F629F3E
:10292000F001729FBB27F00DB11D639FAA27F00D28
:10293000B11DAA1F649F6627B00DA11D661F829F4F
:102940002227B00DA11D621F739FB00DA11D621F34
:10295000839FA00D611D221F749F3327A00D611D51
:10296000231F849F600D211D822F762F6A2F112433
:102970009F5750408AF0E1F088234AF0EE0FFF1F86
:10298000BB1F661F771F881F91505040A9F79E3FBD
:10299000510570F05CCFA6CF5F3FECF3983EDCF3BF
:1029A000869577956795B795F795E7959F5FC1F7FA
:1029B000FE2B880F911D9695879597F90895A1E2B2
:1029C0001A2EAA1BBB1BFD010DC0AA1FBB1FEE1FA9
:1029D000FF1FA217B307E407F50720F0A21BB30BF4
:1029E000E40BF50B661F771F881F991F1A9469F770
:1029F00060957095809590959B01AC01BD01CF01CC
:102A00000895EE0FFF1F0024001C0BBE0790F691E7
:102A1000E02D0994CF93DF93CDB7DEB7AE014B5FC6
:102A20005F4FFA0161917191AF01809160019091C6
:102A3000610133D0DF91CF9108950F931F93CF930E
:102A4000DF93E0916001F0916101238121FF1BC0C0
:102A50008C01D0E0C0E0F80181918F0160916001AC
:102A600070916101DB011896ED91FC911997882313
:102A700031F00995892B79F3DFEFCFEFECCF8AE0C6
:102A80000995892B19F08FEF9FEF02C08D2F9C2F96
:102A9000DF91CF911F910F9108952F923F924F9206
:102AA0005F926F927F928F929F92AF92BF92CF92DE
:102AB000DF92EF92FF920F931F93CF93DF93CDB7E7
:102AC000DEB72C970FB6F894DEBF0FBECDBF7C01EA
:102AD0006B018A01FC0117821682838181FFB0C1DC
:102AE000CE0101964C01F7019381F60193FD85918A
:102AF00093FF81916F01882309F49EC1853239F4D7
:102B000093FD859193FF81916F01853221F4B70187
:102B100090E0C7D1E8CF512C312C20E02032A0F436
:102B20008B3269F030F4803259F0833269F42061DD
:102B30002CC08D3239F0803339F4216026C02260F8
:102B4000246023C0286021C027FD27C030ED380F46
:102B50003A3078F426FF06C0FAE05F9E300D11246B
:102B6000532E13C08AE0389E300D1124332E20627C
:102B70000CC08E3221F426FD5FC1206406C08C3665
:102B800011F4206802C0883641F4F60193FD859166
:102B900093FF81916F018111C1CF982F9F7D955433
:102BA000933028F40C5F1F4FFFE3F9830DC0833689
:102BB00031F0833771F0833509F057C021C0F80137
:102BC000808189830E5F1F4F44244394512C54010C
:102BD00014C03801F2E06F0E711CF801A080B180C2
:102BE00026FF03C0652D70E002C06FEF7FEFC501C7
:102BF0002C874CD12C0183012C852F77222E16C0D7
:102C00003801F2E06F0E711CF801A080B18026FF40
:102C100003C0652D70E002C06FEF7FEFC5012C8708
:102C20002AD12C012C852068222E830123FC19C077
:102C3000832D90E048165906A0F4B70180E290E099
:102C400030D13A94F5CFF50127FC859127FE81918B
:102C50005F01B70190E025D131103A94F1E04F1AAD
:102C600051084114510479F7DEC0843611F08936D9
:102C700031F5F80127FF07C060817181828193815E
:102C80000C5F1F4F08C060817181072E000C880BFC
:102C9000990B0E5F1F4F2F76722E97FF09C09095EC
:102CA0008095709561957F4F8F4F9F4F2068722E52
:102CB0002AE030E0A4012DD1A82EA81843C0853702
:102CC00029F42F7EB22E2AE030E025C0F22FF97FC2
:102CD000BF2E8F36C1F018F4883579F0ADC080373B
:102CE00019F0883721F0A8C02F2F2061B22EB4FE32
:102CF0000DC08B2D8460B82E09C024FF0AC09F2F01
:102D00009660B92E06C028E030E005C020E130E032
:102D100002C020E132E0F801B7FE07C06081718196
:102D2000828193810C5F1F4F06C06081718180E0BA
:102D300090E00E5F1F4FA401ECD0A82EA818FB2D29
:102D4000FF777F2E76FE0BC0372D3E7FA51450F403
:102D500074FE0AC072FC08C0372D3E7E05C0BA2C36
:102D6000372D03C0BA2C01C0B52C34FF0DC0FE01B5
:102D7000EA0DF11D8081803311F4397E09C032FFE4
:102D800006C0B394B39404C0832F867809F0B3943B
:102D900033FD12C030FF06C05A2CB31418F4530C84
:102DA0005B18B32CB31460F4B70180E290E03C8769
:102DB00078D0B3943C85F6CFB31410F43B1801C01F
:102DC000312C34FF11C0B70180E390E03C8769D01B
:102DD0003C8532FF16C031FD03C088E790E002C099
:102DE00088E590E0B7010CC0832F867851F031FF61
:102DF00002C08BE201C080E237FD8DE2B70190E0B6
:102E000050D0A51430F4B70180E390E04AD05A9432
:102E1000F8CFAA94F401EA0DF11D8081B70190E08A
:102E200040D0A110F6CF332009F45DCEB70180E287
:102E300090E037D03A94F7CFF7018681978102C0AE
:102E40008FEF9FEF2C960FB6F894DEBF0FBECDBF6D
:102E5000DF91CF911F910F91FF90EF90DF90CF9076
:102E6000BF90AF909F908F907F906F905F904F90AA
:102E70003F902F900895FC01059061507040011023
:102E8000D8F7809590958E0F9F1F0895FC01615093
:102E9000704001900110D8F7809590958E0F9F1F7C
:102EA00008950F931F93CF93DF93FB01238121FD9F
:102EB00003C08FEF9FEF28C022FF16C046815781C5
:102EC000248135814217530744F4A081B1819D01CB
:102ED0002F5F3F4F318320838C93268137812F5F73
:102EE0003F4F3783268310C0EB01092F182F008432
:102EF000F185E02D0995892BE1F68E819F81019660
:102F00009F838E83812F902FDF91CF911F910F91FF
:102F10000895FA01AA27283051F1203181F1E8946F
:102F20006F936E7F6E5F7F4F8F4F9F4FAF4FB1E0BC
:102F30003ED0B4E03CD0670F781F891F9A1FA11DB7
:102F4000680F791F8A1F911DA11D6A0F711D811DB8
:102F5000911DA11D20D009F468943F912AE0269F7D
:102F600011243019305D3193DEF6CF010895462FDC
:102F70004770405D4193B3E00FD0C9F7F6CF462FBD
:102F80004F70405D4A3318F0495D31FD4052419326
:102F900002D0A9F7EACFB4E0A695979587957795E3
:102FA0006795BA95C9F700976105710508959B016A
:102FB000AC010A2E06945795479537952795BA95F3
:102FC000C9F7620F731F841F951FA01D0895F89401
:022FD000FFCF31
:102FD2000000000300000000650E8A0E000053741A
:102FE200617274004779726F20696E697469616CED
:102FF200697A6174696F6E206572726F723A202508
:10300200750A006779726F20496E6974206F6B00D0
:00000001FF
