S0140000446973706C61792076312E302E7372656315
S113000049C000004FC000004DC000004BC00000BC
S113001049C0000047C0000045C0000043C00000C4
S113002041C000003FC000003DC000003BC00000D4
S113003039C0000037C0000035C0000033C00000E4
S113004031C000002FC000002DC000002BC00000F4
S113005029C0000027C0000025C0000023C0000004
S113006021C000001FC000001DC000001BC0000014
S113007019C0000017C0000015C0000013C0000024
S113008011C000000FC000000DC000000BC0000034
S113009009C0000011241FBECFEFD0E1DEBFCDBFE9
S11300A023D083C0ADCF8EBD0DB407FEFDCF089520
S11300B0CF93C62F2898F7DF8C2FF5DF289ACF919E
S11300C0089584B1876084B98CB582658CBD6FEF67
S11300D089E0EEDF60E08BE0EBDF68E08AE0E8DFF8
S11300E061E08CE0E5CF0895ECDF289881E0DBDF68
S11300F088E0D9DF289A04D00FD080E090E00895FA
S113010088E18093C10086E08093C2001092C5000C
S113011087E68093C4000895E0ECF0E0808185FFD9
S1130120FDCF88E08093C600E0ECF0E0808185FF9D
S1130130FDCF83E08093C600E1E8F0E08081856034
S11301408083109285001092840070E060E0E0ECFF
S1130150F0E0C6ECD0E0A4E8B0E05CE04CE6272F89
S1130160362F808185FFFDCF1882808185FFFDCFEA
S11301702883808185FFFDCF38838D919C911197D1
S11301808D309340D0F311961C921E922C593F4F00
S11301902C3B84E3380729F7808185FFFDCF588302
S11101A0808185FFFDCF4883DACFF894FFCF2E
S9030000FC
