S013000043757272656E745F50444D2E73726563EE
S113000054C0000062C0000060C000005EC0000078
S11300105CC000005AC0000058C0000056C0000078
S113002054C0000052C0000050C000004EC0000088
S1130030FEC700004AC0000048C0000046C00000DF
S113004044C0000042C0000040C000003EC00000A8
S11300503CC000003AC0000038C0000036C00000B8
S113006034C0000032C0000030C000002EC00000C8
S11300702CC000002AC0000028C0000026C00000D8
S113008024C0000022C0000020C000001EC00000E8
S11300901CC00000D8016A02E40248038503CC03B3
S11300A01704A2043705D3012D0611241FBECFEF78
S11300B0D0E1DEBFCDBF21E0A0E0B1E001C01D92E0
S11300C0A431B207E1F78ED7F6C79ACFEAE7F0E09A
S11300D090819F7790839081977F908390819061A6
S11300E09083813059F018F0833091F018C0ECE718
S11300F0F0E080818F73808381E012C0ECE7F0E050
S113010080818F77808380818064808381E008C0D0
S1130110ECE7F0E08081806C808381E001C080E0C6
S1130120662349F0613071F4ECE7F0E0908190626D
S1130130908321E008C0ECE7F0E090819F7D9083FC
S113014021E001C020E0ECE7F0E09081907E908314
S11301509081492B4083EAE7F0E09081987F908377
S1130160908197609083822B089541B321E030E021
S1130170B90102C0660F771F8A95E2F7CB01262FDB
S11301802095422341BB90B3922390BBEEE7F0E06D
S11301909081892B8083EAE7F0E080818068808306
S11301A080917C00807C803C31F480EC9FEF0000E7
S11301B000000197E1F7EAE7F0E080818F7D80831A
S11301C0808180648083808184FFFDCFEAE7F0E052
S11301D080818061808320E140E050E0A8E7B0E0C6
S11301E090819F7D9083908190649083908194FF0F
S11301F0FDCF8D919C911197480F591F908190616B
S11302009083215069F7EAE7F0E080818F7780835B
S1130210CA01929582958F7089279F7089270895C6
S113022080E0ADEEB0E03EEE20E0982F9295907F16
S11302309C93E32FF22F1192E83FF105E1F78F5FD2
S11302408F3099F70895EDEEF0E0208110828091CF
S1130250EF00807C69F081E0ADEEB0E0EFEEF0E01D
S1130260982F9295907F9C939081907C29F401C063
S113027080E02093ED0008958F5F8F3089F72093FD
S1130280ED008FEF08958091EF00807C61F0809104
S1130290EE00982F907E903241F0903441F0903AE5
S11302A041F08F7108958FEF089580E2089580E4FE
S11302B0089580EA0895CF93DF93BC018091EF0005
S11302C08F7099F090E0CAEFD0E0AFEEB0E02881F3
S11302D0FB01E90FF11D20839F5F2C91492F50E012
S11302E02F7030E04217530794F3DF91CF910895B4
S11302F081E08093D80086E08093E20084E08093DC
S1130300E30083E18093E40081E00895F1DF882332
S113031039F086DFE8EDF0E080818260808381E05F
S113032008950F931F93CF93DF9300D000D0CDB7E0
S1130330DEB7FC0181818C3099F48185803669F4C3
S113034080818295807F8093ED00AFEEB0E08C9148
S11303508F738C931092EE001082118680E036C564
S11303608F0171DF8F3F09F42CC590E6D8011996EF
S11303709C9319978C938295807F8093ED00EEEE89
S1130380F0E01192E83FF105E1F7D8011196EC9104
S11303908E2F90E0FC013197EB30F10508F00DC58C
S11303A0E65BFF4F7FC6F80186818111F9C30AC459
S11303B0D8011B968C911B978823E9F114968C9194
S11303C01497982F92959695977015968C911597EA
S11303D0880F880F880F890F8093F30013968C91F0
S11303E01397982F92959695977014968C911497CD
S11303F0880F880F880F890F8093F20012968C91D2
S11304001297982F92959695977013968C911397AF
S1130410880F880F880F890F8093F10012968C91B2
S1130420880F880F880F8093F000EFEEF0E0808152
S11304308061808319C0F8018281869586958695AE
S11304409381F0E29F9F800D11248093F300D801E3
S113045012968C918295880F807E8093F200EFEE45
S1130460F0E080818F7E8083F8018681882391F07B
S113047080E02AEF30E0D8011796ED91FC911897AF
S1130480E80FF11D9081F90190838F5F16969C917E
S1130490891788F3D8011A968C91882331F0E0EFFC
S11304A0F0E080818460808305C0E0EFF0E080812B
S11304B08B7F8083EFEEF0E09081D80116968C91CB
S11304C0892B808380818F73808380818064808383
S11304D080E07CC4F8018385882381F18481982F8E
S11304E09295969597708581880F880F880F890F4C
S11304F08093F3008381982F9295969597708481C9
S1130500880F880F880F890F8093F2008281982FBB
S11305109295969597708381880F880F880F890F1D
S11305208093F1008281880F880F880F8093F000F8
S1130530EFEEF0E080818061808317C08281869530
S1130540869586959381B0E29B9F800D11248093BC
S1130550F300F80182818295880F807E8093F200F7
S1130560EFEEF0E080818F7E8083D80116968C9127
S1130570882391F080E02AEF30E0D8011796ED91BE
S1130580FC911897E80FF11D9081F90190838F5F1A
S113059016969C91891788F3D8011A961C921A977B
S11305A0E0EFF0E080818B7F8083EFEEF0E09081DC
S11305B016968C91892B808380818F7380838081B0
S11305C08064808380E002C4F8018385882381F1FC
S11305D08481982F9295969597708581880F880FBE
S11305E0880F890F8093F3008381982F92959695B5
S11305F097708481880F880F880F890F8093F20089
S11306008281982F9295969597708381880F880F91
S1130610880F890F8093F1008281880F880F880FDB
S11306208093F000EFEEF0E080818061808317C05A
S113063082818695869586959381B0E29B9F800DF5
S113064011248093F300F80182818295880F807EC3
S11306508093F200EFEEF0E080818F7E808381E072
S1130660D8011A968C931A97E0EFF0E080818460A9
S11306708083EFEEF0E0908116968C91892B808335
S113068080818F73808380818064808380E09EC3B7
S113069019821A821B821C821092F7008A81982F79
S11306A09295969597708B81880F880F880F890F84
S11306B08093F6008981982F9295969597708A81F8
S11306C0880F880F880F890F8093F5008981880F20
S11306D0880F880F24EF30E0F9018083EFEEF0E01B
S11306E09081D80116968C91892B8083D9018C91A5
S11306F08B7F8C938C918E7F8C9380818F7380837E
S113070080818068808380E061C319821A821B82A1
S11307101C821092F7008A81982F92959695977073
S11307208B81880F880F880F890F8093F600898149
S1130730982F9295969597708A81880F880F880FC5
S1130740890F8093F5008981880F880F880F44EF03
S113075050E0FA018083EFEEF0E09081D801169624
S11307608C911697892B80831A961C92DA018C91AE
S113077084608C9320EF30E0D9018C918B7F8C9333
S1130780DA018C918E7F8C9380818F73808380813A
S11307908068808380E01AC319821A821B821C82BB
S11307A01092F7008A81982F9295969597708B8175
S11307B0880F880F880F890F8093F6008981982FFE
S11307C09295969597708A81880F880F880F890F64
S11307D08093F5008981880F880F880F44EF50E0DB
S11307E0FA018083EFEEF0E09081D80116968C91A7
S11307F01697892B808381E01A968C93DA018C9169
S113080084608C9320EF30E0D9018C9184608C93C8
S113081080818F7D8083DA018C918E7F8C9380819F
S11308208F73808380818068808380E0CFC2F801E9
S11308308385882381F18481982F9295969597706A
S11308408581880F880F880F890F8093F300838137
S1130850982F9295969597708481880F880F880FAA
S1130860890F8093F2008281982F929596959770C4
S11308708381880F880F880F890F8093F10082810C
S1130880880F880F880F8093F000EFEEF0E08081EE
S11308908061808317C08281869586958695938131
S11308A0B0E29B9F800D11248093F300F8018281B4
S11308B08295880F807E8093F200EFEEF0E08081D5
S11308C08F7E80838FEF9FEFDC0189839A83AB83D4
S11308D0BC838093F7008A81982F929596959770A0
S11308E08B81880F880F880F890F8093F600898188
S11308F0982F9295969597708A81880F880F880F04
S1130900890F8093F5008981880F880F880F24EF61
S113091030E0D9018C93EFEEF0E09081D801169687
S11309208C91892B8083D9018C918B7F8C938C91B2
S113093081608C9380818F738083808180688083C1
S113094080E044C2F8018385882381F18481982F53
S11309509295969597708581880F880F880F890FD7
S11309608093F3008381982F929596959770848154
S1130970880F880F880F890F8093F2008281982F47
S11309809295969597708381880F880F880F890FA9
S11309908093F1008281880F880F880F8093F00084
S11309A0EFEEF0E080818061808317C082818695BC
S11309B0869586959381B0E29B9F800D1124809348
S11309C0F300F80182818295880F807E8093F20083
S11309D0EFEEF0E080818F7E80838FEF9FEFDC016C
S11309E089839A83AB83BC838093F7008A81982F91
S11309F09295969597708B81880F880F880F890F31
S1130A008093F6008981982F9295969597708A81A4
S1130A10880F880F880F890F8093F5008981880FCC
S1130A20880F880F44EF50E0DA018C93EFEEF0E08A
S1130A309081D80116968C911697892B80831A96EB
S1130A401C92DA018C9184608C9320EF30E0D90100
S1130A508C918B7F8C93DA018C9181608C93808153
S1130A608F73808380818068808380E0AFC1F801C8
S1130A708385882381F18481982F92959695977028
S1130A808581880F880F880F890F8093F3008381F5
S1130A90982F9295969597708481880F880F880F68
S1130AA0890F8093F2008281982F92959695977082
S1130AB08381880F880F880F890F8093F1008281CA
S1130AC0880F880F880F8093F000EFEEF0E08081AC
S1130AD08061808317C082818695869586959381EF
S1130AE0B0E29B9F800D11248093F300F801828172
S1130AF08295880F807E8093F200EFEEF0E0808193
S1130B008F7E80838FEF9FEFDC0189839A83AB8391
S1130B10BC838093F7008A81982F9295969597705D
S1130B208B81880F880F880F890F8093F600898145
S1130B30982F9295969597708A81880F880F880FC1
S1130B40890F8093F5008981880F880F880F44EFFF
S1130B5050E0DA018C93EFEEF0E09081D801169624
S1130B608C911697892B808381E01A968C93DA01F5
S1130B708C9184608C9320EF30E0D9018C91846057
S1130B808C9380818F7D8083DA018C9181608C933A
S1130B9080818F73808380818068808380E016C128
S1130BA080E02AEF30E0D8011796ED91FC91189778
S1130BB0E80FF11D9081F90190838F5F16969C9147
S1130BC0891788F319821A821B821C821092F700FB
S1130BD08A81982F9295969597708B81880F880FAC
S1130BE0880F890F8093F6008981982F92959695A6
S1130BF097708A81880F880F880F890F8093F5007A
S1130C008981880F880F880F44EF50E0DA018C93B4
S1130C10EFEEF0E09081D80116968C911697892B0F
S1130C20808381E01A968C93DA018C9184608C9392
S1130C3020EF30E0D9018C9184608C9380818062B4
S1130C408083DA018C918E7F8C9380818F73808373
S1130C5080818068808380E0B9C0F801838588231F
S1130C6081F18481982F9295969597708581880F4C
S1130C70880F880F890F8093F3008381982F9295B2
S1130C80969597708481880F880F880F890F8093B9
S1130C90F2008281982F9295969597708381880FA0
S1130CA0880F880F890F8093F1008281880F880F45
S1130CB0880F8093F000EFEEF0E080818061808304
S1130CC017C082818695869586959381B0E29B9F15
S1130CD0800D11248093F300F80182818295880F9E
S1130CE0807E8093F200EFEEF0E080818F7E80833F
S1130CF0D80116968C91882391F080E02AEF30E099
S1130D00D8011796ED91FC911897E80FF11D908189
S1130D10F90190838F5F16969C91891788F38FEF62
S1130D209FEFDC0189839A83AB83BC838093F700B4
S1130D308A81982F9295969597708B81880F880F4A
S1130D40880F890F8093F6008981982F9295969544
S1130D5097708A81880F880F880F890F8093F50018
S1130D608981880F880F880F44EF50E0DA018C9353
S1130D70EFEEF0E09081D80116968C911697892BAE
S1130D80808381E01A968C93DA018C9184608C9331
S1130D9020EF30E0D9018C9184608C938081806253
S1130DA08083DA018C9181608C9380818F7380833E
S1130DB080818068808380E009C0F801118680E02A
S1130DC005C08FE1D80119968C938FEF0F900F9087
S1130DD00F900F90DF91CF911F910F910895EF9293
S1130DE0FF921F93CF93DF93FC019185992309F41C
S1130DF090C09F3109F48FC09F3F09F48EC0EF016A
S1130E0080818295807F8093ED003DDA182F8032B7
S1130E1059F020F4882309F482C071C0803409F4A5
S1130E2063C0803A09F06BC00F2EFFEEEF2EF12C59
S1130E30F02DF70180818F708E838F8198853BDA46
S1130E408091F00082FB882780F98A87F7018081EE
S1130E5084FF2DC081E08B87E3EFF0E080818695ED
S1130E60869586958D83A2EFB0E08C9190818695CE
S1130E7086958695F0E29F9F800D11248C83E1EF87
S1130E80F0E080819C9186958695869520E2929FDC
S1130E90800D11248B838091F00090818695869536
S1130EA08695E0E29E9F800D11248A8313C01B86E1
S1130EB0E3EFF0E080818295869587708B83809143
S1130EC0F2009081990F990F990F829586958770FA
S1130ED0890F8A831987EFEEF0E080818F73808316
S1130EE01092EE0080E01CC080E48987EFEEF0E011
S1130EF080818F7380831092EE0080E011C0198787
S1130F00EFEEF0E080818F7380831092EE0082E038
S1130F1007C082E005C082E003C082E001C081E036
S1130F20DF91CF911F91FF90EF900895CF93DF93BE
S1130F3085B7806885BF85B7806885BF81E0809369
S1130F40D800E4D9E9EDF0E0808182FFFDCF8FEF96
S1130F508093DA0065D9E1E8F0E01082A0E8B0E01F
S1130F601C9210928200109285001092840029E84D
S1130F7030E0E9011882C8E8D0E0188210928B00B2
S1130F8010928A0010928D0010928C0010928700AB
S1130F90109286008C918C7F8C938081877E8860F0
S1130FA080838081887F8360808381E6F9018083E8
S1130FB088EA8883EFE6F0E080818260808380E0C5
S1130FC090E0DF91CF9108952BD980E091E0A9D9E9
S1130FD08111FBCF80E091E002DF8111FBCF80E043
S1130FE090E00895E0E0F1E080E590E0938382836F
S1130FF08CE091E09087878381E0818388E0868319
S113100095DF00E010E0C02FD12F4C2F60E081E08D
S11310105DD88C2FAAD8925096958795FE01E45FEF
S1131020FE4F80832196C830D10579F7ECCF1F920B
S11310300F920FB60F9211240BB60F922F933F937A
S11310404F935F936F937F938F939F93AF93BF93CC
S1131050CF93DF93EF93FF93F894CFE6D0E08881AA
S11310608D7F888389E08093890084EC8093880055
S1131070ABDF8881826088837894FF91EF91DF9160
S1131080CF91BF91AF919F918F917F916F915F911C
S11310904F913F912F910F900BBE0F900FBE0F9069
S11310A01F901895EE0FFF1F0024001C0BBE079025
S10D10B0F691E02D0994F894FFCFA7
S9030000FC
