:1000000054C0000071C000006FC000006DC000004F
:100010006BC0000069C0000067C0000065C0000040
:1000200063C0000061C000000C946F095DC0000057
:100030005BC0000059C0000057C0000055C0000060
:1000400053C0000051C000004FC000004DC0000070
:100050004BC0000049C0000047C0000045C0000080
:1000600043C0000041C000003FC000003DC0000090
:100070003BC0000039C0000037C0000035C00000A0
:1000800033C0000031C000002FC000002DC00000B0
:100090002BC0000019028B02030365039503CD03F7
:1000A00009048B041505A305F50511241FBECFEF28
:1000B000D0E1DEBFCDBF11E0A0E0B1E0EEEFF7E1AF
:1000C00000E00BBF02C007900D92A437B107D9F72B
:1000D00021E0A4E7B1E001C01D92AD3BB207E1F71A
:1000E0000E94D30A0C94FD0B8BCFCF93DF93FB01BF
:1000F000E9011A821B821C821D82198218829F8349
:100100008E83798768875B874A87BC016F5F7F4FE3
:100110008FEF9FE70E94840B7D876C879F012F5F85
:100120003F4F032E000C440B550B6FEF7FEF8FEF0B
:100130009FE30E94B90B2E873F87488B598BDF9135
:10014000CF910895EF92FF920F931F93CF93DF9378
:100150008B01FA019C01261B370B8485958582173C
:10016000930784F0919581959109281739076CF0D0
:1001700086819781289FE001299FD00D389FD00D5F
:10018000112405C0CFEFDFE702C0C1E0D0E8C9010C
:10019000330FAA0BBB0B42815381648175819A0195
:1001A000AB01280F391F4A1F5B1F86859785A089E1
:1001B000B18982179307A407B5074CF48283938310
:1001C000A483B5836FEF7FEF8FEF9FE31DC0B095E2
:1001D000A095909581959F4FAF4FBF4F2817390736
:1001E0004A075B074CF482839383A483B58361E061
:1001F00070E080E090EC08C0228333834483558311
:10020000A085B1850E94DE0B20813181201B310B3E
:10021000A285B3852A9F70012B9FF00C3A9FF00CAA
:100220001124118300838E01DD0F220B330BAB01F0
:10023000BC01400F511F621F731FC701FF0CAA0BA7
:10024000BB0B8A019B01080F191F2A1F3B1FC90105
:10025000B80120E830E040E050E00E94B90B2130C6
:1002600010E831071FEF4107510724F421E030E87F
:100270004FEF5FEFDA01C901811520E89207A10570
:10028000B10524F08FEF9FE7A0E0B0E0DF91CF91C0
:100290001F910F91FF90EF9008950F931F93FC0112
:1002A000E61BF70B021B130BE09FC001E19F900DB3
:1002B000F09F900D1124FA01E61BF70BBF010E947D
:1002C000700BCB01820F931F1F910F91089580E057
:1002D000982F9295907F9093ED00EEEEF0E01192C2
:1002E000E83FF105E1F798E01092FA009150E1F74C
:1002F0008F5F8F3069F708952091ED0080E0982F8F
:100300009295907F9093ED009091EF00907C19F47E
:100310002093ED0008958F5F8F3089F72093ED00D3
:100320008FEF08958091EF00807C61F08091EE0066
:10033000982F907E903241F0903441F0903A41F005
:100340008F7108958FEF089580E2089580E40895F5
:1003500080EA0895BC0190E02091EF00492F50E021
:100360002F7030E04217530744F48091FA00FB01EC
:10037000E40FF51F80839F5FEFCF089581E08093A6
:10038000D80086E08093E20084E08093E30083E17C
:100390008093E40081E00895F1DF882339F097DF4E
:1003A0008091D80082608093D80081E008950F93F7
:1003B0001F93CF93DF9300D000D0CDB7DEB7FC0101
:1003C00081818C3091F48185803609F0BDC48081B3
:1003D0008295807F8093ED008091EF008F738093F2
:1003E000EF001092EE001082AFC48F0185DF8F3FC7
:1003F00009F4ACC490E6D80119969C9319978C9394
:100400008295807F8093ED00EEEEF0E01192E83F60
:10041000F105E1F7D8011196EC918E2F90E0FC01E7
:100420003197EB30F10508F08EC4E65BFF4F0C947A
:10043000D50BF8018385882391F184818295869577
:1004400087709581F8E09F9F800D11248093F300C1
:10045000D80113968C911397829586958770149680
:100460009C91B8E09B9F800D11248093F200F801CD
:1004700082818295869587709381F8E09F9F800D99
:1004800011248093F100D80112968C91880F880F67
:10049000880F8093F0008091EF00806117C0F80111
:1004A00082818695869586959381F0E29F9F800D47
:1004B00011248093F300D80112968C918295880FB5
:1004C000807E8093F2008091EF008F7E8093EF001A
:1004D00080E0F8019681891760F4D8011796ED91B4
:1004E000FC911897E80FF11D90819093FA008F5FAF
:1004F000F0CF8285882321F08091F000846003C0D2
:100500008091F0008B7F8093F0009091EF00D801F4
:1005100016968C9169C0F8018385882391F18481B6
:100520008295869587709581F8E09F9F800D1124B4
:100530008093F300D80113968C911397829586953A
:10054000877014969C91B8E09B9F800D1124809336
:10055000F200F80182818295869587709381F8E098
:100560009F9F800D11248093F100D80112968C91E9
:10057000880F880F880F8093F0008091EF008061D2
:1005800017C0F80182818695869586959381F0E261
:100590009F9F800D11248093F300D80112968C91B7
:1005A0008295880F807E8093F2008091EF008F7E8D
:1005B0008093EF0080E0F8019681891760F4D801FC
:1005C0001796ED91FC911897E80FF11D908190938B
:1005D000FA008F5FF0CF12868091F0008B7F8093BE
:1005E000F0009091EF008681892B8093EF0080913D
:1005F000EF008F738093EF008091EF008064809311
:10060000EF0080E0A8C3D8011B968C911B9788232C
:10061000A1F114968C911497829586958770159602
:100620009C91B8E09B9F800D11248093F300F8010A
:1006300083818295869587709481F8E09F9F800DD5
:1006400011248093F200D80112968C911297829512
:100650008695877013969C91B8E09B9F800D11241E
:100660008093F100F8018281880F880F880F8093B2
:10067000F0008091EF00806119C0D80112968C9132
:10068000129786958695869513969C91B0E29B9FCE
:10069000800D11248093F300F80182818295880FE8
:1006A000807E8093F2008091EF008F7E8093EF0038
:1006B00081E0D8011A968C931A978091F00084609B
:1006C0008093F0009091EF0023CF19821A821B8251
:1006D0001C821092F7008A818295869587709B8193
:1006E000B8E09B9F800D11248093F600898182954C
:1006F000869587709A81E8E09E9F800D11248093F3
:10070000F5008981880F880F880F8093F4009091FD
:10071000EF00D80116968C91892B8093EF00809181
:10072000F4008B7F8093F4005CC219821A821B82D2
:100730001C821092F7008A818295869587709B8132
:10074000B8E09B9F800D11248093F60089818295EB
:10075000869587709A81E8E09E9F800D1124809392
:10076000F5008981880F880F880F8093F40090919D
:10077000EF00D80116968C911697892B8093EF0085
:100780001A961C928091F40084608093F40080910A
:10079000F0008B7F8093F00024C219821A821B82A2
:1007A0001C821092F7008A818295869587709B81C2
:1007B000B8E09B9F800D11248093F600898182957B
:1007C000869587709A81E8E09E9F800D1124809322
:1007D000F5008981880F880F880F8093F40090912D
:1007E000EF00D80116968C911697892B8093EF0015
:1007F00081E01A968C938091F40084608093F400D9
:100800008091F00084608093F0008091EF008F7DF4
:10081000E6C1F8018385882391F1848182958695CC
:1008200087709581F8E09F9F800D11248093F300DD
:10083000D80113968C91139782958695877014969C
:100840009C91B8E09B9F800D11248093F200F801E9
:1008500082818295869587709381F8E09F9F800DB5
:1008600011248093F100D80112968C91880F880F83
:10087000880F8093F0008091EF00806117C0F8012D
:1008800082818695869586959381F0E29F9F800D63
:1008900011248093F300D80112968C918295880FD1
:1008A000807E8093F2008091EF008F7E8093EF0036
:1008B0008FEF9FEFDC0189839A83AB83BC838093A6
:1008C000F7008A818295869587709B81B8E09B9F0F
:1008D000800D11248093F60089818295869587701A
:1008E0009A81E8E09E9F800D11248093F500898114
:1008F000880F880F880F8093F4009091EF00D80143
:1009000016968C91892B8093EF008091F4008B7F59
:100910008093F4000AC2F8018385882391F18481D1
:100920008295869587709581F8E09F9F800D1124B0
:100930008093F300D80113968C9113978295869536
:10094000877014969C91B8E09B9F800D1124809332
:10095000F200F80182818295869587709381F8E094
:100960009F9F800D11248093F100D80112968C91E5
:10097000880F880F880F8093F0008091EF008061CE
:1009800017C0F80182818695869586959381F0E25D
:100990009F9F800D11248093F300D80112968C91B3
:1009A0008295880F807E8093F2008091EF008F7E89
:1009B0008093EF008FEF9FEFDC0189839A83AB83F5
:1009C000BC838093F7008A818295869587709B818E
:1009D000B8E09B9F800D11248093F6008981829559
:1009E000869587709A81E8E09E9F800D1124809300
:1009F000F5008981880F880F880F8093F40090910B
:100A0000EF00D80116968C911697892B8093EF00F2
:100A10001A961C928091F40084608093F400809177
:100A2000F0008B7F8093F00080C1F80183858823DC
:100A300091F184818295869587709581F8E09F9FDA
:100A4000800D11248093F300D80113968C91139795
:100A500082958695877014969C91B8E09B9F800D37
:100A600011248093F200F801828182958695877027
:100A70009381F8E09F9F800D11248093F100D801AD
:100A800012968C91880F880F880F8093F0008091C8
:100A9000EF00806117C0F801828186958695869562
:100AA0009381F0E29F9F800D11248093F300D80181
:100AB00012968C918295880F807E8093F2008091AF
:100AC000EF008F7E8093EF008FEF9FEFDC01898333
:100AD0009A83AB83BC838093F7008A818295869545
:100AE00087709B81B8E09B9F800D11248093F60056
:100AF00089818295869587709A81E8E09E9F800D16
:100B000011248093F5008981880F880F880F8093C6
:100B1000F4009091EF00D80116968C911697892BCE
:100B20008093EF0081E01A968C938091F4008460AA
:100B30008093F4008091F00084608093F0008091B5
:100B4000EF008F7DF0C080E0F8019681891760F496
:100B5000D8011796ED91FC911897E80FF11D90813F
:100B60009093FA008F5FF0CF19821A821B821C8249
:100B70001092F7008A818295869587709B81F8E0B4
:100B80009F9F800D11248093F60089818295869520
:100B900087709A8128E0929F800D11248093F50040
:100BA0008981880F880F880F8093F4009091EF005F
:100BB000D80116968C911697892B8093EF0081E0CF
:100BC0001A968C938091F40084608093F400809155
:100BD000F00084608093F0008091EF008062809349
:100BE000EF008091F4008E7FA3C0F80183858823F5
:100BF00091F184818295869587709581F8E09F9F19
:100C0000800D11248093F300D80113968C911397D3
:100C100082958695877014969C91B8E09B9F800D75
:100C200011248093F200F801828182958695877065
:100C30009381F8E09F9F800D11248093F100D801EB
:100C400012968C91880F880F880F8093F000809106
:100C5000EF00806117C0F8018281869586958695A0
:100C60009381F0E29F9F800D11248093F300D801BF
:100C700012968C918295880F807E8093F2008091ED
:100C8000EF008F7E8093EF0080E0F8019681891756
:100C900060F4D8011796ED91FC911897E80FF11DBB
:100CA00090819093FA008F5FF0CF8FEF9FEFDC0180
:100CB00089839A83AB83BC838093F7008A81829572
:100CC000869587709B81F8E09F9F800D112480930B
:100CD000F60089818295869587709A8128E0929F97
:100CE000800D11248093F5008981880F880F880F6B
:100CF0008093F4009091EF00D80116968C9116978E
:100D0000892B8093EF0081E01A968C938091F400F8
:100D100084608093F4008091F00084608093F00000
:100D20008091EF0080628093EF008091F4008160F9
:100D30008093F4008091EF008F738093EF00809197
:100D4000EF0080685CCCF80111865BCC8FE1D801A4
:100D500019968C938FEF0F900F900F900F90DF915B
:100D6000CF911F910F9108951F93CF93DF93EC01C3
:100D70009985992309F479C09F3109F476C09F3F82
:100D800009F473C088818295807F8093ED00CADA70
:100D9000182F803259F020F4882309F468C05DC010
:100DA000803409F450C0803A09F057C08091EF00B8
:100DB0008F708E838F819885CDDA8091F00082FBD1
:100DC000882780F98A878091EF0084FF29C081E01D
:100DD0008B878091F3008695869586958D8380918B
:100DE000F2009091F30086958695869520E2929F79
:100DF000800D11248C838091F1009091F2008695F2
:100E00008695869520E2929F800D11248B83809198
:100E1000F0009091F10086958695869520E20FC0AE
:100E20001B868091F3008295869587708B838091D5
:100E3000F2009091F30082958695877028E0929F4A
:100E4000800D11248A8319878091EF008F7380931E
:100E5000EF001092EE0080E00BC019878091EF0048
:100E60008F738093EF001092EE0082E001C081E06A
:100E7000DF91CF911F910895CF93DF93E1ECF0E0E4
:100E800010829091C60062EC70E0DB019C93C0EC94
:100E9000D0E090E4988396E09C9345EC50E0DA0132
:100EA0001C9224EC30E0D9011C92DA011C929FECD8
:100EB000D9019C93988192609883988190629883DD
:100EC00090819B7F90839081282F2470922B908318
:100ED000982F9873DB019C939C918370880F892BCA
:100EE0008C9380818861808381E0DF91CF91089528
:100EF0009091C00095FFFCCF8093C6000895CF93DA
:100F0000DF93EC018991882311F0F2DFFBCFDF91B1
:100F1000CF9108952F923F924F925F926F927F925E
:100F20008F929F92AF92BF92CF92DF92EF92FF92F9
:100F30000F931F93CF93DF93CDB7DEB72E970FB6E6
:100F4000F894DEBF0FBECDBFFE01B39681909190A5
:100F50008F0120E090E0BBE03B2EAE014F5F5F4F82
:100F60007A0180E3B82E3BE0A32EA40E4AE0442E83
:100F7000512C612C712CF4018081882309F496C1D5
:100F8000853219F0213009F045C064015FEFC51AC0
:100F9000D50AF4012181243609F441C048F42835EA
:100FA00009F4D6C0233689F0203309F06BC12FC174
:100FB0002337C9F018F42C3649F164C1253709F4F8
:100FC00087C0283709F4C4C05DC1913021F48CE694
:100FD0008FDF83E65DC14801F2E08F0E911CF801BE
:100FE000808186DF12C1913021F48CE681DF83E7B6
:100FF0004FC1F801808091800E5F1F4FF4018191F5
:101000004F01882309F445C173DFF8CF913009F00F
:1010100045C18CE66DDF640120E090E042C1F7013C
:10102000B192AE12FDCF1C864801992351F1F4E034
:101030008F0E911CF801608171818281938197FFED
:1010400009C090958095709561957F4F8F4F9F4F08
:1010500001E001C000E01AE09701210F311D3E8739
:101060002D87A301920185D3605DED85FE856083A8
:10107000B901CA011150611571058105910561F72A
:101080001BC0F2E08F0E911CF8018081918197FFC7
:1010900005C091958195910901E001C000E01AE039
:1010A000F701E10FF11D6AE070E02ED3805D8083CF
:1010B000CB0111500097A1F7002311F08DE218DF4A
:1010C0001F5F311608F4132DC701810F911D9CC0BD
:1010D000F701B192AE12FDCF1C8648019923E1F0D1
:1010E000F4E08F0E911CF8016081718182819381FF
:1010F000AAE02A2E8701020D111DA301920117D328
:10110000605DF8016083B901CA012A946115710517
:101110008105910579F714C0F2E08F0E911CF8015A
:1011200080819181FAE02F2EF701E20DF11D6AE036
:1011300070E0D6D2805D80832A94CB010097A1F71E
:101140002394321408F4232CC701820D911D5CC036
:10115000F701B192AE12FDCF1C864801992349F1E7
:10116000F4E08F0E911CF8014081518162817381FE
:101170008AE04115510561057105F1F1942F9F70C9
:10118000E82FF0E09A3010F4905D07C0283711F096
:1011900031E401C031E69A50930FEE0DFF1D9083AC
:1011A000E4E07695679557954795EA95D1F7815094
:1011B000E0CFF2E08F0E911CF801408151818AE06E
:1011C00041155105C9F0942F9F70E82FF0E09A3037
:1011D00010F4905D07C0283711F031E401C031E60A
:1011E0009A50930FEE0DFF1D908334E0569547956E
:1011F0003A95E1F78150E4CF8F5F381608F4832DDC
:101200009701280F311DC9017ADE840142C0913057
:1012100021F48CE66DDE80E33BC0F401828190ED29
:10122000980F9A3030F58F70938120ED290F2A3076
:1012300020F0F3E08F0E911C07C08295807F9F7095
:10124000892B24E0820E911C982F9F7082958F70BD
:101250003AE0839F900D1124892F9C3008F08BE099
:101260009BE0392E381A640142E0C41AD10821E00B
:10127000D4CE640152E0C50ED11C80E339DEF40106
:10128000828106C0913011F48CE632DEF401818156
:101290002FDE20E090E08BE0382E03C0640121E0D7
:1012A00091E04601FFEF8F1A9F0A65CE2E960FB68A
:1012B000F894DEBF0FBECDBFDF91CF911F910F918C
:1012C000FF90EF90DF90CF90BF90AF909F908F9066
:1012D0007F906F905F904F903F902F9008951F9256
:1012E0000F920FB60F9211248F939F9380917401E8
:1012F000909175018038910530F4019690937501B5
:101300008093740109C08091760181608093760199
:1013100010927501109274019F918F910F900FBEE2
:101320000F901F90189581E08093D80035D8809158
:10133000D90082FFFCCF8FEF8093DA000E94670113
:10134000279A15B810928500109284008091800031
:10135000837F886080938000809180008C7F809361
:10136000800080918100877E8061809381008091E0
:101370008100887F8160809381008EE88093870060
:101380008BE08093860010928D0010928C0010925A
:101390008500109284008091B000887F81608093E6
:1013A000B000809170008160809370001092B20054
:1013B00083E081B981E082B92FE931E040E050E07B
:1013C00060E070E086E691E00E94750040E855E23A
:1013D00060E070E083E050DD8CE091E090CD0F9311
:1013E0001F93CF93DF9381EB91E00E94D70181118E
:1013F000FACF81EB91E0B8DC8111FBCFE091B8012D
:10140000F091B901C081D0E0DC2FCC2781816091BF
:10141000080170910901C82BC617D70708F4EB0122
:1014200040910A0150910B014C175D0708F4EA0145
:101430008A019B01CE010E944D01CE01DF91CF9127
:101440001F910F910895EF92FF920F931F93CF93E7
:10145000DF938BE791E00E94D7018111FACF8BE7F0
:1014600091E082DC8111FBCFE091B801F091B901EC
:10147000C081D0E0DC2FCC278181C82B20910001D6
:10148000309101019C2F8D2FC217D30710F4922F9A
:10149000832F0091020110910301E92EF82E0E1501
:1014A0001F0508F478016091040170910501C617C9
:1014B000D70708F4EB0140910601509107014C1742
:1014C0005D0708F4EA01CE010E944D01CE19DF0943
:1014D000D7FF03C0D195C195D109C33BDC4014F4BB
:1014E000C70102C080E090E0DF91CF911F910F9182
:1014F000FF90EF90089590938D0080938C00089555
:10150000EF92FF920F931F93CF93DF93EC01162F6F
:10151000072FF42EE52ED0939701809398017093B6
:10152000990160939A0150939B0140939C0187E835
:1015300091E00E94D7018111FACF87E891E014DC95
:10154000882339F087E891E00FDC8230B1F70E9400
:101550006701EF92FF920F931F93DF93CF938AE27D
:1015600091E09F938F93D6DC8DB79EB708960FB608
:10157000F8949EBF0FBE8DBFDF91CF911F910F9149
:10158000FF90EF900895282F082E000C330B3F9307
:101590008F938BE491E09F938F93BCDC0F900F901F
:1015A0000F900F900895F894BEDE789483E291E056
:1015B00090938A018093890187E991E090938F014C
:1015C00080938E0181E08093880188E080938D0173
:1015D00087E08093B20180937C0187E791E090934C
:1015E00083018093820183E991E09093B901809314
:1015F000B80184E08093B7018093810182E291E099
:1016000090937E0180937D01109286011092850156
:1016100081E191E09093B4018093B3011092BC01F9
:101620001092BB0187E6C82E81E0D82E0CDF7C012A
:10163000D6DE8C01DF92CF926DDCAE01B701C8011E
:101640005FDF0F900F90E114F10429F482E09BDF3B
:10165000C8E6D1E020C00115110511F481E0F7CFF3
:101660008091760180FF14C04FE951E0B701C801B5
:101670000E94A200EC0197FF05C010928D0010920D
:101680008C0001C038DF809176018E7F80937601D7
:1016900080E079DFCBCFDF93CF933CDCF8941092DE
:1016A0008D0010928C000F900F901092810010927C
:1016B0008000109282001092850010928400109297
:1016C00089001092880010928B0010928A0010926C
:1016D0008D0010928C001092870010928600DBCF54
:1016E000AA1BBB1B51E107C0AA1FBB1FA617B70748
:1016F00010F0A61BB70B881F991F5A95A9F7809564
:101700009095BC01CD01089597FB072E16F4009427
:1017100006D077FD08D0E4DF07FC05D03EF49095B5
:1017200081959F4F0895709561957F4F0895A1E22F
:101730001A2EAA1BBB1BFD010DC0AA1FBB1FEE1F4B
:10174000FF1FA217B307E407F50720F0A21BB30B96
:10175000E40BF50B661F771F881F991F1A9469F712
:1017600060957095809590959B01AC01BD01CF016E
:101770000895052E97FB16F400940FD057FD05D061
:10178000D6DF07FC02D046F408C05095409530954E
:1017900021953F4F4F4F5F4F0895909580957095DD
:1017A00061957F4F8F4F9F4F0895EE0FFF1F0024CD
:1017B000001C0BBE0790F691E02D0994B7FF04C002
:1017C00003D0821B930B089509D0A59F900DB49F61
:1017D000900DA49F800D911D11240895A29FB0012A
:1017E000B39FC001A39F700D811D1124911DB29F55
:0E17F000700D811D1124911D0895F894FFCFF6
:1017FE00C82712F0E1D868105802900150726F633A
:10180E006573736F7220496E697420696E2044652A
:10181E00627567204D6F64650A00506564616C3AAD
:10182E002025640A5468726F74746C653A202564BE
:10183E000A496E7075743A25640A004375727265B2
:10184E006E74205049442053746174757320436F35
:10185E0064653A2025640A004572726F72205374D3
:04186E00617465003C
:00000001FF
