S00F00004547545F416D702E73726563B8
S11300000C9449000C9453000C9453000C9453002A
S11300100C9453000C9453000C9453000C94530010
S11300200C9453000C9453000C9453000C94530000
S11300300C9453000C9453000C9453000C945300F0
S11300400C9453000C9453000C9453000C945300E0
S11300500C9453000C9453000C9453000C945300D0
S11300600C9453000C9453000C9453000C945300C0
S11300700C9453000C9453000C9453000501770125
S1130080EF0151028102B902F502770301048F04E2
S1130090E10411241FBECFEFD0E1DEBFCDBF0E942B
S11300A02A060C9458060C94000080E0982F929530
S11300B0907F9093ED00EEEEF0E01192E83FF105B1
S11300C0E1F78F5F863091F708952091ED0080E08D
S11300D0982F9295907F9093ED009091EF00907CF3
S11300E019F42093ED0008958F5F863089F72093EB
S11300F0ED008FEF08958091EF00807C61F0809196
S1130100EE00982F907E903241F0903441F0903A76
S113011041F08F7108958FEF089580E2089580E48F
S1130120089580EA0895BC0190E02091EF00492FE2
S113013050E02F7030E04217530744F48091FA00E6
S1130140FB01E40FF51F80839F5FEFCF089581E0EB
S11301508093D80082E08093E20084E08093E300FF
S113016083E18093E40081E008950E94A70088233E
S113017041F00E9455008091D80082608093D8009D
S113018081E008950F931F93CF93DF9300D000D0A5
S1130190CDB7DEB7FC0181818C3091F48185803646
S11301A009F0BEC480818295807F8093ED008091A8
S11301B0EF008F738093EF001092EE001082B0C4B2
S11301C08F010E9465008F3F09F4ACC490E6D8010A
S11301D019969C9319978C938295807F8093ED0058
S11301E0EEEEF0E01192E83FF105E1F7D801119647
S11301F0EC918E2F90E0FC013197EB30F10508F083
S11302008EC4E25CFF4F0C945206F8018385882368
S113021091F184818295869587709581F8E09F9FFE
S1130220800D11248093F300D80113968C911397B9
S113023082958695877014969C91B8E09B9F800D5B
S113024011248093F200F80182818295869587704B
S11302509381F8E09F9F800D11248093F100D801D1
S113026012968C91880F880F880F8093F0008091EC
S1130270EF00806117C0F801828186958695869586
S11302809381F0E29F9F800D11248093F300D801A5
S113029012968C918295880F807E8093F2008091D3
S11302A0EF008F7E8093EF0080E0F801968189173C
S11302B060F4D8011796ED91FC911897E80FF11DA1
S11302C090819093FA008F5FF0CF8285882321F08C
S11302D08091F000846003C08091F0008B7F809354
S11302E0F0009091EF00D80116968C9169C0F80146
S11302F08385882391F18481829586958770958181
S1130300F8E09F9F800D11248093F300D801139689
S11303108C91139782958695877014969C91B8E07A
S11303209B9F800D11248093F200F80182818295B5
S1130330869587709381F8E09F9F800D11248093A8
S1130340F100D80112968C91880F880F880F809342
S1130350F0008091EF00806117C0F80182818695DA
S1130360869586959381F0E29F9F800D112480935A
S1130370F300D80112968C918295880F807E809329
S1130380F2008091EF008F7E8093EF0080E0F8010F
S11303909681891760F4D8011796ED91FC9118970E
S11303A0E80FF11D90819093FA008F5FF0CF1286D1
S11303B08091F0008B7F8093F0009091EF00868114
S11303C0892B8093EF008091EF008F738093EF006F
S11303D08091EF0080648093EF0080E0A8C3D8018F
S11303E01B968C911B978823A1F114968C911497DA
S11303F082958695877015969C91B8E09B9F800D99
S113040011248093F300F801838182958695877087
S11304109481F8E09F9F800D11248093F200D8010D
S113042012968C91129782958695877013969C915B
S1130430B8E09B9F800D11248093F100F801828124
S1130440880F880F880F8093F0008091EF008061FF
S113045019C0D80112968C91129786958695869527
S113046013969C91B0E29B9F800D11248093F3001E
S1130470F80182818295880F807E8093F2008091BA
S1130480EF008F7E8093EF0081E0D8011A968C9361
S11304901A978091F00084608093F0009091EF00AF
S11304A023CF19821A821B821C821092F7008A8140
S11304B08295869587709B81B8E09B9F800D11245F
S11304C08093F60089818295869587709A81E8E009
S11304D09E9F800D11248093F5008981880F880FD9
S11304E0880F8093F4009091EF00D80116968C91B8
S11304F0892B8093EF008091F4008B7F8093F4002C
S11305005CC219821A821B821C821092F7008A81B3
S11305108295869587709B81B8E09B9F800D1124FE
S11305208093F60089818295869587709A81E8E0A8
S11305309E9F800D11248093F5008981880F880F78
S1130540880F8093F4009091EF00D80116968C9157
S11305501697892B8093EF001A961C928091F400D1
S113056084608093F4008091F0008B7F8093F0008E
S113057024C219821A821B821C821092F7008A817B
S11305808295869587709B81B8E09B9F800D11248E
S11305908093F60089818295869587709A81E8E038
S11305A09E9F800D11248093F5008981880F880F08
S11305B0880F8093F4009091EF00D80116968C91E7
S11305C01697892B8093EF0081E01A968C93809183
S11305D0F40084608093F4008091F0008460809340
S11305E0F0008091EF008F7DE6C1F80183858823B8
S11305F091F184818295869587709581F8E09F9F1B
S1130600800D11248093F300D80113968C911397D5
S113061082958695877014969C91B8E09B9F800D77
S113062011248093F200F801828182958695877067
S11306309381F8E09F9F800D11248093F100D801ED
S113064012968C91880F880F880F8093F000809108
S1130650EF00806117C0F8018281869586958695A2
S11306609381F0E29F9F800D11248093F300D801C1
S113067012968C918295880F807E8093F2008091EF
S1130680EF008F7E8093EF008FEF9FEFDC01898373
S11306909A83AB83BC838093F7008A818295869585
S11306A087709B81B8E09B9F800D11248093F60096
S11306B089818295869587709A81E8E09E9F800D56
S11306C011248093F5008981880F880F880F809307
S11306D0F4009091EF00D80116968C91892B8093A9
S11306E0EF008091F4008B7F8093F4000AC2F8013C
S11306F08385882391F1848182958695877095817D
S1130700F8E09F9F800D11248093F300D801139685
S11307108C91139782958695877014969C91B8E076
S11307209B9F800D11248093F200F80182818295B1
S1130730869587709381F8E09F9F800D11248093A4
S1130740F100D80112968C91880F880F880F80933E
S1130750F0008091EF00806117C0F80182818695D6
S1130760869586959381F0E29F9F800D1124809356
S1130770F300D80112968C918295880F807E809325
S1130780F2008091EF008F7E8093EF008FEF9FEF58
S1130790DC0189839A83AB83BC838093F7008A81CD
S11307A08295869587709B81B8E09B9F800D11246C
S11307B08093F60089818295869587709A81E8E016
S11307C09E9F800D11248093F5008981880F880FE6
S11307D0880F8093F4009091EF00D80116968C91C5
S11307E01697892B8093EF001A961C928091F4003F
S11307F084608093F4008091F0008B7F8093F000FC
S113080080C1F8018385882391F18481829586953E
S113081087709581F8E09F9F800D11248093F300E9
S1130820D80113968C9113978295869587701496A8
S11308309C91B8E09B9F800D11248093F200F801F5
S113084082818295869587709381F8E09F9F800DC1
S113085011248093F100D80112968C91880F880F8F
S1130860880F8093F0008091EF00806117C0F80139
S113087082818695869586959381F0E29F9F800D6F
S113088011248093F300D80112968C918295880FDD
S1130890807E8093F2008091EF008F7E8093EF0042
S11308A08FEF9FEFDC0189839A83AB83BC838093B2
S11308B0F7008A818295869587709B81B8E09B9F1B
S11308C0800D11248093F600898182958695877026
S11308D09A81E8E09E9F800D11248093F500898120
S11308E0880F880F880F8093F4009091EF00D8014F
S11308F016968C911697892B8093EF0081E01A96B7
S11309008C938091F40084608093F4008091F000D3
S113091084608093F0008091EF008F7DF0C080E0D0
S1130920F8019681891760F4D8011796ED91FC912E
S11309301897E80FF11D90819093FA008F5FF0CF24
S113094019821A821B821C821092F7008A81829576
S1130950869587709B81F8E09F9F800D112480937A
S1130960F60089818295869587709A8128E0929F06
S1130970800D11248093F5008981880F880F880FDA
S11309808093F4009091EF00D80116968C911697FD
S1130990892B8093EF0081E01A968C938091F40068
S11309A084608093F4008091F00084608093F00070
S11309B08091EF0080628093EF008091F4008E7F3D
S11309C0A3C0F8018385882391F18481829586955B
S11309D087709581F8E09F9F800D11248093F30028
S11309E0D80113968C9113978295869587701496E7
S11309F09C91B8E09B9F800D11248093F200F80134
S1130A0082818295869587709381F8E09F9F800DFF
S1130A1011248093F100D80112968C91880F880FCD
S1130A20880F8093F0008091EF00806117C0F80177
S1130A3082818695869586959381F0E29F9F800DAD
S1130A4011248093F300D80112968C918295880F1B
S1130A50807E8093F2008091EF008F7E8093EF0080
S1130A6080E0F8019681891760F4D8011796ED911A
S1130A70FC911897E80FF11D90819093FA008F5F15
S1130A80F0CF8FEF9FEFDC0189839A83AB83BC8324
S1130A908093F7008A818295869587709B81F8E020
S1130AA09F9F800D11248093F600898182958695FD
S1130AB087709A8128E0929F800D11248093F5001D
S1130AC08981880F880F880F8093F4009091EF003C
S1130AD0D80116968C911697892B8093EF0081E0AC
S1130AE01A968C938091F40084608093F400809132
S1130AF0F00084608093F0008091EF008062809326
S1130B00EF008091F40081608093F4008091EF0005
S1130B108F738093EF008091EF0080685CCCF801C4
S1130B2011865BCC8FE1D80119968C938FEF0F90CF
S1130B300F900F900F90DF91CF911F910F91089517
S1130B401F93CF93DF93EC019985992309F47BC01C
S1130B509F3109F478C09F3F09F475C0888182955C
S1130B60807F8093ED000E947B00182F803259F023
S1130B7020F4882309F469C05EC0803409F451C0AC
S1130B80803A09F058C08091EF008F708E838F8176
S1130B9098850E9493008091F00082FB882780F959
S1130BA08A878091EF0084FF29C081E08B87809140
S1130BB0F3008695869586958D838091F2009091B9
S1130BC0F30086958695869520E2929F800D1124E8
S1130BD08C838091F1009091F2008695869586959C
S1130BE020E2929F800D11248B838091F0009091DC
S1130BF0F10086958695869520E20FC01B8680912C
S1130C00F3008295869587708B838091F200909192
S1130C10F30082958695877028E0929F800D1124B9
S1130C208A8319878091EF008F738093EF0010926D
S1130C30EE0080E00BC019878091EF008F738093E2
S1130C40EF001092EE0082E001C081E0DF91CF91CD
S1130C501F910895CF93DF93CDB7DEB764970FB696
S1130C60F894DEBF0FBECDBF81E00E94B50083E2E1
S1130C7091E09C838B83CE010D969987888781E0D0
S1130C808A8382E08F8380EA8D87CE0101960E9459
S1130C90C2008111FACFCE0101960E94A0058130D5
S1130CA0D1F3F3CFEE0FFF1F0590F491E02D0994DB
S1070CB0F894FFCFE2
S9030000FC
