:100000000C9449000C945B000C945B000C945B0016
:100010000C945B000C945B000C945B000C945B00F4
:100020000C945B000C945B000C945B000C945B00E4
:100030000C944B010C945B000C945B000C945B00E3
:100040000C945B000C945B000C945B000C945B00C4
:100050000C945B000C945B000C945B000C945B00B4
:100060000C945B000C945B000C945B000C945B00A4
:100070000C945B000C945B000C945B004202B40295
:100080002C038E03BE03F6033204B4043E05CC05F4
:100090001E0611241FBECFEFD0E1DEBFCDBF21E091
:1000A000A0E0B1E001C01D92AC31B207E1F70E94BF
:1000B00067070C94E6080C94000090917A009F77F3
:1000C00090937A0090917A00977F90937A00909124
:1000D0007A00906190937A00813059F030F083304B
:1000E000A1F480917C00806C0CC080917C008F73A7
:1000F00008C080917C008F7780937C0080917C0089
:10010000806480937C0081E001C080E0662331F050
:10011000613059F490917C00906203C090917C0012
:100120009F7D90937C0091E001C090E020917C0045
:10013000207E20937C0020917C00422B40937C0009
:1001400020917A00287F20937A0020917A002660FF
:1001500020937A00892B0895883078F440917E00AE
:1001600021E030E0B90102C0660F771F8A95E2F7FF
:10017000CB01842B80937E0013C0893041F08A30FC
:1001800051F0883069F480917F00816007C08091D0
:100190007F00826003C080917F00846080937F0035
:1001A00080917A00806880937A0080917C00807CC6
:1001B000803C31F480EE9FE7000000000197E1F7FA
:1001C00080917A008F7D80937A0080917A0080649C
:1001D00080937A0080917A0084FFFCCF80917A002E
:1001E000806180937A0020E180E090E030917A0095
:1001F0003F7D30937A0030917A00306430937A00FA
:1002000030917A0034FFFCCF409178005091790012
:10021000840F951F30917A00306130937A0021501D
:1002200029F720917A002F7720937A0024E0969581
:1002300087952A95E1F70895109285001092840021
:10024000882329F09AEF899F9001112402C024ECA1
:1002500039E0309389002093880092E090936F00FA
:100260009BE090938100811115C0809100019091D5
:100270000101A0910201B09103010A96A11DB11DD7
:100280008093000190930101A0930201B0930301B8
:100290000C94800808951F920F920FB60F921124AC
:1002A0002F933F934F935F936F937F938F939F937E
:1002B000AF93BF93CF93DF93EF93FF93CFE6D0E05D
:1002C0008881188284EC99E090938900809388005B
:1002D0008091000190910101A0910201B091030170
:1002E0000A96A11DB11D8093000190930101A09376
:1002F0000201B09303010E94800888818260888394
:10030000FF91EF91DF91CF91BF91AF919F918F912D
:100310007F916F915F914F913F912F910F900FBE01
:100320000F901F90189580E0982F9295907F909352
:10033000ED00EEEEF0E01192E83FF105E1F78F5F9E
:10034000863091F708952091ED0080E0982F9295E6
:10035000907F9093ED009091EF00907C19F42093A2
:10036000ED0008958F5F863089F72093ED008FEFC1
:1003700008958091EF00807C61F08091EE00982FCD
:10038000907E903241F0903441F0903A41F08F717C
:1003900008958FEF089580E2089580E4089580EA3B
:1003A0000895BC0190E02091EF00492F50E02F709C
:1003B00030E04217530744F48091FA00FB01E40F48
:1003C000F51F80839F5FEFCF089581E08093D80071
:1003D0001092E20084E08093E30083E18093E400E4
:1003E00081E008950E94E501882341F00E94930175
:1003F0008091D80082608093D80081E008950F93A7
:100400001F93CF93DF9300D000D0CDB7DEB7FC01B0
:1004100081818C3091F48185803609F0BEC4808161
:100420008295807F8093ED008091EF008F738093A1
:10043000EF001092EE001082B0C48F010E94A30161
:100440008F3F09F4ACC490E6D80119969C93199794
:100450008C938295807F8093ED00EEEEF0E0119218
:10046000E83FF105E1F7D8011196EC918E2F90E06D
:10047000FC013197EB30F10508F08EC4E25CFF4FD0
:100480000C94D108F8018385882391F184818295A9
:10049000869587709581F8E09F9F800D1124809349
:1004A000F300D80113968C911397829586958770E7
:1004B00014969C91B8E09B9F800D11248093F200CC
:1004C000F80182818295869587709381F8E09F9FDD
:1004D000800D11248093F100D80112968C91880F21
:1004E000880F880F8093F0008091EF00806117C023
:1004F000F80182818695869586959381F0E29F9F8B
:10050000800D11248093F300D80112968C9182956E
:10051000880F807E8093F2008091EF008F7E809321
:10052000EF0080E0F8019681891760F4D8011796F2
:10053000ED91FC911897E80FF11D90819093FA00CE
:100540008F5FF0CF8285882321F08091F000846056
:1005500003C08091F0008B7F8093F0009091EF00BA
:10056000D80116968C9169C0F8018385882391F192
:1005700084818295869587709581F8E09F9F800D94
:1005800011248093F300D80113968C9113978295D0
:100590008695877014969C91B8E09B9F800D1124DE
:1005A0008093F200F801828182958695877093810D
:1005B000F8E09F9F800D11248093F100D8011296DE
:1005C0008C91880F880F880F8093F0008091EF0046
:1005D000806117C0F8018281869586958695938102
:1005E000F0E29F9F800D11248093F300D8011296B2
:1005F0008C918295880F807E8093F2008091EF002D
:100600008F7E8093EF0080E0F8019681891760F477
:10061000D8011796ED91FC911897E80FF11D908184
:100620009093FA008F5FF0CF12868091F0008B7F5D
:100630008093F0009091EF008681892B8093EF00EA
:100640008091EF008F738093EF008091EF008064C2
:100650008093EF0080E0A8C3D8011B968C911B9774
:100660008823A1F114968C911497829586958770B2
:1006700015969C91B8E09B9F800D11248093F30008
:10068000F80183818295869587709481F8E09F9F19
:10069000800D11248093F200D80112968C9112974C
:1006A00082958695877013969C91B8E09B9F800DEC
:1006B00011248093F100F8018281880F880F880F40
:1006C0008093F0008091EF00806119C0D8011296EC
:1006D0008C91129786958695869513969C91B0E29B
:1006E0009B9F800D11248093F300F80182818295F5
:1006F000880F807E8093F2008091EF008F7E809340
:10070000EF0081E0D8011A968C931A978091F0003F
:1007100084608093F0009091EF0023CF19821A82B9
:100720001B821C821092F7008A81829586958770C1
:100730009B81B8E09B9F800D11248093F6008981F6
:100740008295869587709A81E8E09E9F800D11249E
:100750008093F5008981880F880F880F8093F400BB
:100760009091EF00D80116968C91892B8093EF0021
:100770008091F4008B7F8093F4005CC219821A820E
:100780001B821C821092F7008A8182958695877061
:100790009B81B8E09B9F800D11248093F600898196
:1007A0008295869587709A81E8E09E9F800D11243E
:1007B0008093F5008981880F880F880F8093F4005B
:1007C0009091EF00D80116968C911697892B809303
:1007D000EF001A961C928091F40084608093F400DC
:1007E0008091F0008B7F8093F00024C219821A82DE
:1007F0001B821C821092F7008A81829586958770F1
:100800009B81B8E09B9F800D11248093F600898125
:100810008295869587709A81E8E09E9F800D1124CD
:100820008093F5008981880F880F880F8093F400EA
:100830009091EF00D80116968C911697892B809392
:10084000EF0081E01A968C938091F400846080938D
:10085000F4008091F00084608093F0008091EF00BC
:100860008F7DE6C1F8018385882391F1848182958B
:10087000869587709581F8E09F9F800D1124809365
:10088000F300D80113968C91139782958695877003
:1008900014969C91B8E09B9F800D11248093F200E8
:1008A000F80182818295869587709381F8E09F9FF9
:1008B000800D11248093F100D80112968C91880F3D
:1008C000880F880F8093F0008091EF00806117C03F
:1008D000F80182818695869586959381F0E29F9FA7
:1008E000800D11248093F300D80112968C9182958B
:1008F000880F807E8093F2008091EF008F7E80933E
:10090000EF008FEF9FEFDC0189839A83AB83BC8379
:100910008093F7008A818295869587709B81B8E0E5
:100920009B9F800D11248093F60089818295869586
:1009300087709A81E8E09E9F800D11248093F500D6
:100940008981880F880F880F8093F4009091EF00C1
:10095000D80116968C91892B8093EF008091F4003A
:100960008B7F8093F4000AC2F8018385882391F17C
:1009700084818295869587709581F8E09F9F800D90
:1009800011248093F300D80113968C9113978295CC
:100990008695877014969C91B8E09B9F800D1124DA
:1009A0008093F200F8018281829586958770938109
:1009B000F8E09F9F800D11248093F100D8011296DA
:1009C0008C91880F880F880F8093F0008091EF0042
:1009D000806117C0F80182818695869586959381FE
:1009E000F0E29F9F800D11248093F300D8011296AE
:1009F0008C918295880F807E8093F2008091EF0029
:100A00008F7E8093EF008FEF9FEFDC0189839A83C5
:100A1000AB83BC838093F7008A818295869587702B
:100A20009B81B8E09B9F800D11248093F600898103
:100A30008295869587709A81E8E09E9F800D1124AB
:100A40008093F5008981880F880F880F8093F400C8
:100A50009091EF00D80116968C911697892B809370
:100A6000EF001A961C928091F40084608093F40049
:100A70008091F0008B7F8093F00080C1F801838526
:100A8000882391F184818295869587709581F8E01D
:100A90009F9F800D11248093F300D80113968C91B1
:100AA000139782958695877014969C91B8E09B9FCA
:100AB000800D11248093F200F80182818295869541
:100AC00087709381F8E09F9F800D11248093F1003F
:100AD000D80112968C91880F880F880F8093F000B0
:100AE0008091EF00806117C0F8018281869586951C
:100AF00086959381F0E29F9F800D11248093F300EF
:100B0000D80112968C918295880F807E8093F20096
:100B10008091EF008F7E8093EF008FEF9FEFDC01DD
:100B200089839A83AB83BC838093F7008A81829503
:100B3000869587709B81B8E09B9F800D11248093E0
:100B4000F60089818295869587709A81E8E09E9F5C
:100B5000800D11248093F5008981880F880F880FFC
:100B60008093F4009091EF00D80116968C9116971F
:100B7000892B8093EF0081E01A968C938091F4008A
:100B800084608093F4008091F00084608093F00092
:100B90008091EF008F7DF0C080E0F8019681891789
:100BA00060F4D8011796ED91FC911897E80FF11DAC
:100BB00090819093FA008F5FF0CF19821A821B8286
:100BC0001C821092F7008A818295869587709B819E
:100BD000F8E09F9F800D11248093F6008981829513
:100BE000869587709A8128E0929F800D11248093CA
:100BF000F5008981880F880F880F8093F400909109
:100C0000EF00D80116968C911697892B8093EF00F0
:100C100081E01A968C938091F40084608093F400B4
:100C20008091F00084608093F0008091EF008062FA
:100C30008093EF008091F4008E7FA3C0F80183853C
:100C4000882391F184818295869587709581F8E05B
:100C50009F9F800D11248093F300D80113968C91EF
:100C6000139782958695877014969C91B8E09B9F08
:100C7000800D11248093F200F8018281829586957F
:100C800087709381F8E09F9F800D11248093F1007D
:100C9000D80112968C91880F880F880F8093F000EE
:100CA0008091EF00806117C0F8018281869586955A
:100CB00086959381F0E29F9F800D11248093F3002D
:100CC000D80112968C918295880F807E8093F200D5
:100CD0008091EF008F7E8093EF0080E0F801968195
:100CE000891760F4D8011796ED91FC911897E80FD9
:100CF000F11D90819093FA008F5FF0CF8FEF9FEFFF
:100D0000DC0189839A83AB83BC838093F7008A815B
:100D10008295869587709B81F8E09F9F800D1124B6
:100D20008093F60089818295869587709A8128E064
:100D3000929F800D11248093F5008981880F880F80
:100D4000880F8093F4009091EF00D80116968C9153
:100D50001697892B8093EF0081E01A968C938091EF
:100D6000F40084608093F4008091F00084608093AC
:100D7000F0008091EF0080628093EF008091F4009A
:100D800081608093F4008091EF008F738093EF0077
:100D90008091EF0080685CCCF80111865BCC8FE11C
:100DA000D80119968C938FEF0F900F900F900F90A2
:100DB000DF91CF911F910F9108951F93CF93DF93F0
:100DC000EC019985992309F47BC09F3109F478C01F
:100DD0009F3F09F475C088818295807F8093ED00E4
:100DE0000E94B901182F803259F020F4882309F4A9
:100DF00069C05EC0803409F451C0803A09F058C01F
:100E00008091EF008F708E838F8198850E94D10131
:100E10008091F00082FB882780F98A878091EF001B
:100E200084FF29C081E08B878091F30086958695A9
:100E300086958D838091F2009091F300869586953A
:100E4000869520E2929F800D11248C838091F10081
:100E50009091F20086958695869520E2929F800D6E
:100E600011248B838091F0009091F10086958695F6
:100E7000869520E20FC01B868091F30082958695AF
:100E800087708B838091F2009091F3008295869514
:100E9000877028E0929F800D11248A8319878091A2
:100EA000EF008F738093EF001092EE0080E00BC094
:100EB00019878091EF008F738093EF001092EE00FE
:100EC00082E001C081E0DF91CF911F910895F894F5
:100ED00080E88093610010926100109200011092EE
:100EE0000101109202011092030180E597E09093B6
:100EF00013018093120184E091E090931801809394
:100F0000170181E08093110188E0809316018FEF33
:100F100084B985B917B818B8399A419A1AB81BB864
:100F20001DB81BB881E00E94F20185E00E941C01FF
:100F300078948FEF9FEFDC0180930C0190930D016B
:100F4000A0930E01B0930F01CC24CA9483E0D82E55
:100F5000E12CF12C95E0892E912CA12CB12C45E0AF
:100F600060E081E00E945D0085E00E94AC009C0191
:100F7000A8EEB3E00E94D708A70196010E94AF082F
:100F800020930C0130930D0140930E0150930F01FB
:100F90008FB7F89490910C01909304018FBF00C01B
:100FA00000C0000046E060E081E00E945D0086E055
:100FB0000E94AC009C01A8E8B3E10E94D708A701F9
:100FC00096010E94AF0820930C0130930D014093CD
:100FD0000E0150930F01CFB7F89460910C017091FE
:100FE0000D0180910E0190910F01A50194010E94C5
:100FF000AF0820930501CFBF00C000C0000047E04C
:1010000060E081E00E945D0087E00E94AC009C01EE
:10101000A8E8B3E10E94D708A70196010E94AF0893
:1010200020930C0130930D0140930E0150930F015A
:10103000CFB7F89460910C0170910D0180910E0171
:1010400090910F01A50194010E94AF082093060121
:10105000CFBF00C000C0000048E060E081E00E9417
:101060005D0088E00E94AC009C01A8E8B3E10E940A
:10107000D708A70196010E94AF0820930C01309376
:101080000D0140930E0150930F01CFB7F89460917A
:101090000C0170910D0180910E0190910F01A5013D
:1010A00094010E94AF0820930701CFBF00C000C089
:1010B000000049E060E081E00E945D0089E00E945C
:1010C000AC009C01A8E8B3E10E94D708A7019601F3
:1010D0000E94AF0820930C0130930D0140930E0144
:1010E00050930F012FB7F89480910C0165E00E9496
:1010F000A308809308012FBF88E08A95F1F72FCFCE
:1011000060910001709101018091020190910301B1
:1011100028EC30E040E050E00E94AF08672B682BDD
:10112000692B81F480E191E00E94FF018111FACFE7
:1011300080E191E00E94DD068130D1F398B182E038
:10114000892788B90895991B79E004C0991F9617DB
:1011500008F0961B881F7A95C9F780950895A1E23B
:101160001A2EAA1BBB1BFD010DC0AA1FBB1FEE1F21
:10117000FF1FA217B307E407F50720F0A21BB30B6C
:10118000E40BF50B661F771F881F991F1A9469F7E8
:1011900060957095809590959B01AC01BD01CF0144
:1011A0000895EE0FFF1F0590F491E02D0994A29F82
:1011B000B001B39FC001A39F700D811D1124911D2B
:1011C000B29F700D811D1124911D0895F894FFCFD9
:00000001FF
