:1000000049C000005CC000005AC0000058C0000099
:1000100056C0000054C0000052C0000050C0000094
:100020004EC000004CC000004AC0000048C00000A4
:1000300046C0000044C0000042C0000040C00000B4
:100040003EC000003CC000003AC0000038C00000C4
:1000500036C0000034C0000032C0000030C00000D4
:100060002EC000002CC000002AC0000028C00000E4
:1000700026C0000024C0000022C0000020C00000F4
:100080001EC000001CC000001AC0000018C0000004
:1000900016C0000011241FBECFEFD0E1DEBFCDBFE0
:1000A00011E0A0E0B1E0ECE7F1E000E00BBF02C03E
:1000B00007900D92A630B107D9F702D05DC0A0CF4E
:1000C00040E855E260E070E083E004D080E091E039
:1000D00045D0FCCFCF93DF93E1ECF0E0108290911C
:1000E000C60062EC70E0DB019C93C0ECD0E090E4D1
:1000F000988396E09C9345EC50E0DA011C9224EC46
:1001000030E0D9011C92DA011C929FECD9019C933A
:1001100098819260988398819062988390819B7F68
:1001200090839081282F2470922B9083982F98731E
:10013000DB019C939C918370880F892B8C93808129
:100140008861808381E0DF91CF910895E0ECF0E059
:10015000908195FFFDCF8093C6000895CF93DF93E4
:10016000EC018881882329F02196F0DF89918111A3
:0C017000FCCFDF91CF910895F894FFCFF1
:06017C00746573740000BD
:00000001FF
