S01000005469726554656D702E73726563EA
S113000054C0000063C0000061C000005FC0000075
S11300105DC000005BC0000059C0000057C0000074
S113002055C0000053C0000051C000004FC0000084
S11300300C9456084BC0000049C0000047C00000A3
S113004045C0000043C0000041C000003FC00000A4
S11300503DC000003BC0000039C0000037C00000B4
S113006035C0000033C0000031C000002FC00000C4
S11300702DC000002BC0000029C0000027C00000D4
S113008025C0000023C0000021C000001FC00000E4
S11300901DC000003001C2013C02A002DD022403A5
S11300A06F03FA038F042B01850511241FBECFEFC4
S11300B0D0E1DEBFCDBF21E0A0E0B1E001C01D92E0
S11300C0AC31B207E1F7B5D70C94890A99CF80E037
S11300D0ADEEB0E03EEE20E0982F9295907F9C9399
S11300E0E32FF22F1192E83FF105E1F78F5F8F3094
S11300F099F70895EDEEF0E0208110828091EF00F1
S1130100807C69F081E0ADEEB0E0EFEEF0E0982F96
S11301109295907F9C939081907C29F401C080E01B
S11301202093ED0008958F5F8F3089F72093ED00C1
S11301308FEF08958091EF00807C61F08091EE0054
S1130140982F907E903241F0903441F0903A41F0F3
S11301508F7108958FEF089580E2089580E40895E3
S113016080EA0895CF93DF93BC018091EF008F70F4
S113017099F090E0CAEFD0E0AFEEB0E02881FB0147
S1130180E90FF11D20839F5F2C91492F50E02F70C0
S113019030E04217530794F3DF91CF91089581E043
S11301A08093D80086E08093E20084E08093E300AB
S11301B083E18093E40081E00895F1DF882339F03E
S11301C086DFE8EDF0E080818260808381E008953D
S11301D00F931F93CF93DF9300D000D0CDB7DEB73A
S11301E0FC0181818C3099F48185803669F48081A9
S11301F08295807F8093ED00AFEEB0E08C918F7399
S11302008C931092EE001082118680E037C58F0126
S113021071DF8F3F09F42DC590E6D80119969C93A0
S113022019978C938295807F8093ED00EEEEF0E039
S11302301192E83FF105E1F7D8011196EC918E2F68
S113024090E0FC013197EB30F10508F00EC5E65B58
S1130250FF4F0C94800AF80186818111F9C30AC406
S1130260D8011B968C911B978823E9F114968C91E5
S11302701497982F92959695977015968C9115973B
S1130280880F880F880F890F8093F30013968C9141
S11302901397982F92959695977014968C9114971E
S11302A0880F880F880F890F8093F20012968C9123
S11302B01297982F92959695977013968C91139701
S11302C0880F880F880F890F8093F10012968C9104
S11302D0880F880F880F8093F000EFEEF0E08081A4
S11302E08061808319C0F801828186958695869500
S11302F09381F0E29F9F800D11248093F300D80135
S113030012968C918295880F807E8093F200EFEE96
S1130310F0E080818F7E8083F8018681882391F0CC
S113032080E02AEF30E0D8011796ED91FC91189700
S1130330E80FF11D9081F90190838F5F16969C91CF
S1130340891788F3D8011A968C91882331F0E0EF4D
S1130350F0E080818460808305C0E0EFF0E080817C
S11303608B7F8083EFEEF0E09081D80116968C911C
S1130370892B808380818F738083808180648083D4
S113038080E07CC4F8018385882381F18481982FDF
S11303909295969597708581880F880F880F890F9D
S11303A08093F3008381982F92959695977084811A
S11303B0880F880F880F890F8093F2008281982F0D
S11303C09295969597708381880F880F880F890F6F
S11303D08093F1008281880F880F880F8093F0004A
S11303E0EFEEF0E080818061808317C08281869582
S11303F0869586959381B0E29B9F800D112480930E
S1130400F300F80182818295880F807E8093F20048
S1130410EFEEF0E080818F7E8083D80116968C9178
S1130420882391F080E02AEF30E0D8011796ED910F
S1130430FC911897E80FF11D9081F90190838F5F6B
S113044016969C91891788F3D8011A961C921A97CC
S1130450E0EFF0E080818B7F8083EFEEF0E090812D
S113046016968C91892B808380818F738083808101
S11304708064808380E002C4F8018385882381F14D
S11304808481982F9295969597708581880F880F0F
S1130490880F890F8093F3008381982F9295969506
S11304A097708481880F880F880F890F8093F200DA
S11304B08281982F9295969597708381880F880FE3
S11304C0880F890F8093F1008281880F880F880F2D
S11304D08093F000EFEEF0E080818061808317C0AC
S11304E082818695869586959381B0E29B9F800D47
S11304F011248093F300F80182818295880F807E15
S11305008093F200EFEEF0E080818F7E808381E0C3
S1130510D8011A968C931A97E0EFF0E080818460FA
S11305208083EFEEF0E0908116968C91892B808386
S113053080818F73808380818064808380E09EC308
S113054019821A821B821C821092F7008A81982FCA
S11305509295969597708B81880F880F880F890FD5
S11305608093F6008981982F9295969597708A8149
S1130570880F880F880F890F8093F5008981880F71
S1130580880F880F24EF30E0F9018083EFEEF0E06C
S11305909081D80116968C91892B8083D9018C91F6
S11305A08B7F8C938C918E7F8C9380818F738083CF
S11305B080818068808380E061C319821A821B82F3
S11305C01C821092F7008A81982F929596959770C5
S11305D08B81880F880F880F890F8093F60089819B
S11305E0982F9295969597708A81880F880F880F17
S11305F0890F8093F5008981880F880F880F44EF55
S113060050E0FA018083EFEEF0E09081D801169675
S11306108C911697892B80831A961C92DA018C91FF
S113062084608C9320EF30E0D9018C918B7F8C9384
S1130630DA018C918E7F8C9380818F73808380818B
S11306408068808380E01AC319821A821B821C820C
S11306501092F7008A81982F9295969597708B81C6
S1130660880F880F880F890F8093F6008981982F4F
S11306709295969597708A81880F880F880F890FB5
S11306808093F5008981880F880F880F44EF50E02C
S1130690FA018083EFEEF0E09081D80116968C91F8
S11306A01697892B808381E01A968C93DA018C91BA
S11306B084608C9320EF30E0D9018C9184608C931A
S11306C080818F7D8083DA018C918E7F8C938081F1
S11306D08F73808380818068808380E0CFC2F8013B
S11306E08385882381F18481982F929596959770BC
S11306F08581880F880F880F890F8093F300838189
S1130700982F9295969597708481880F880F880FFB
S1130710890F8093F2008281982F92959695977015
S11307208381880F880F880F890F8093F10082815D
S1130730880F880F880F8093F000EFEEF0E080813F
S11307408061808317C08281869586958695938182
S1130750B0E29B9F800D11248093F300F801828105
S11307608295880F807E8093F200EFEEF0E0808126
S11307708F7E80838FEF9FEFDC0189839A83AB8325
S1130780BC838093F7008A81982F929596959770F1
S11307908B81880F880F880F890F8093F6008981D9
S11307A0982F9295969597708A81880F880F880F55
S11307B0890F8093F5008981880F880F880F24EFB3
S11307C030E0D9018C93EFEEF0E09081D8011696D9
S11307D08C91892B8083D9018C918B7F8C938C9104
S11307E081608C9380818F73808380818068808313
S11307F080E044C2F8018385882381F18481982FA5
S11308009295969597708581880F880F880F890F28
S11308108093F3008381982F9295969597708481A5
S1130820880F880F880F890F8093F2008281982F98
S11308309295969597708381880F880F880F890FFA
S11308408093F1008281880F880F880F8093F000D5
S1130850EFEEF0E080818061808317C0828186950D
S1130860869586959381B0E29B9F800D1124809399
S1130870F300F80182818295880F807E8093F200D4
S1130880EFEEF0E080818F7E80838FEF9FEFDC01BD
S113089089839A83AB83BC838093F7008A81982FE2
S11308A09295969597708B81880F880F880F890F82
S11308B08093F6008981982F9295969597708A81F6
S11308C0880F880F880F890F8093F5008981880F1E
S11308D0880F880F44EF50E0DA018C93EFEEF0E0DC
S11308E09081D80116968C911697892B80831A963D
S11308F01C92DA018C9184608C9320EF30E0D90152
S11309008C918B7F8C93DA018C9181608C938081A4
S11309108F73808380818068808380E0AFC1F80119
S11309208385882381F18481982F92959695977079
S11309308581880F880F880F890F8093F300838146
S1130940982F9295969597708481880F880F880FB9
S1130950890F8093F2008281982F929596959770D3
S11309608381880F880F880F890F8093F10082811B
S1130970880F880F880F8093F000EFEEF0E08081FD
S11309808061808317C08281869586958695938140
S1130990B0E29B9F800D11248093F300F8018281C3
S11309A08295880F807E8093F200EFEEF0E08081E4
S11309B08F7E80838FEF9FEFDC0189839A83AB83E3
S11309C0BC838093F7008A81982F929596959770AF
S11309D08B81880F880F880F890F8093F600898197
S11309E0982F9295969597708A81880F880F880F13
S11309F0890F8093F5008981880F880F880F44EF51
S1130A0050E0DA018C93EFEEF0E09081D801169675
S1130A108C911697892B808381E01A968C93DA0146
S1130A208C9184608C9320EF30E0D9018C918460A8
S1130A308C9380818F7D8083DA018C9181608C938B
S1130A4080818F73808380818068808380E016C179
S1130A5080E02AEF30E0D8011796ED91FC911897C9
S1130A60E80FF11D9081F90190838F5F16969C9198
S1130A70891788F319821A821B821C821092F7004C
S1130A808A81982F9295969597708B81880F880FFD
S1130A90880F890F8093F6008981982F92959695F7
S1130AA097708A81880F880F880F890F8093F500CB
S1130AB08981880F880F880F44EF50E0DA018C9306
S1130AC0EFEEF0E09081D80116968C911697892B61
S1130AD0808381E01A968C93DA018C9184608C93E4
S1130AE020EF30E0D9018C9184608C938081806206
S1130AF08083DA018C918E7F8C9380818F738083C5
S1130B0080818068808380E0B9C0F8018385882370
S1130B1081F18481982F9295969597708581880F9D
S1130B20880F880F890F8093F3008381982F929503
S1130B30969597708481880F880F880F890F80930A
S1130B40F2008281982F9295969597708381880FF1
S1130B50880F880F890F8093F1008281880F880F96
S1130B60880F8093F000EFEEF0E080818061808355
S1130B7017C082818695869586959381B0E29B9F66
S1130B80800D11248093F300F80182818295880FEF
S1130B90807E8093F200EFEEF0E080818F7E808390
S1130BA0D80116968C91882391F080E02AEF30E0EA
S1130BB0D8011796ED91FC911897E80FF11D9081DB
S1130BC0F90190838F5F16969C91891788F38FEFB4
S1130BD09FEFDC0189839A83AB83BC838093F70006
S1130BE08A81982F9295969597708B81880F880F9C
S1130BF0880F890F8093F6008981982F9295969596
S1130C0097708A81880F880F880F890F8093F50069
S1130C108981880F880F880F44EF50E0DA018C93A4
S1130C20EFEEF0E09081D80116968C911697892BFF
S1130C30808381E01A968C93DA018C9184608C9382
S1130C4020EF30E0D9018C9184608C9380818062A4
S1130C508083DA018C9181608C9380818F7380838F
S1130C6080818068808380E009C0F801118680E07B
S1130C7005C08FE1D80119968C938FEF0F900F90D8
S1130C800F900F90DF91CF911F910F910895EF92E4
S1130C90FF921F93CF93DF93FC019185992309F46D
S1130CA090C09F3109F48FC09F3F09F48EC0EF01BB
S1130CB080818295807F8093ED003CDA182F80320A
S1130CC059F020F4882309F482C071C0803409F4F7
S1130CD063C0803A09F06BC00F2EFFEEEF2EF12CAB
S1130CE0F02DF70180818F708E838F8198853ADA99
S1130CF08091F00082FB882780F98A87F701808140
S1130D0084FF2DC081E08B87E3EFF0E0808186953E
S1130D10869586958D83A2EFB0E08C91908186951F
S1130D2086958695F0E29F9F800D11248C83E1EFD8
S1130D30F0E080819C9186958695869520E2929F2D
S1130D40800D11248B838091F00090818695869587
S1130D508695E0E29E9F800D11248A8313C01B8632
S1130D60E3EFF0E080818295869587708B83809194
S1130D70F2009081990F990F990F8295869587704B
S1130D80890F8A831987EFEEF0E080818F73808367
S1130D901092EE0080E01CC080E48987EFEEF0E062
S1130DA080818F7380831092EE0080E011C01987D8
S1130DB0EFEEF0E080818F7380831092EE0082E08A
S1130DC007C082E005C082E003C082E001C081E088
S1130DD0DF91CF911F91FF90EF9008951F93CF93D0
S1130DE0DF93162FEC01CC0FDD1F8C2F68D0812FE1
S1130DF099D08C2F8F5F8BD0A7D0D82FA5D0C82F98
S1130E00AED087D02C2F30E0922F88278D0F911DE4
S1130E10DF91CF911F91089567E070E090E0DEDFED
S1130E20BC0180E090E07BD22AE037ED43EA5CE34A
S1130E3004C30895F1DF23E333E948E853E471C1BF
S1130E400895F8DF20E030E040E151E4F6D220E0FC
S1130E5030E040EA50E4CAD120E030E040E052E41F
S1130E6061C108951092B90088EF8093B800089585
S1130E7094EA9093BC00ECEBF0E090819923ECF7BA
S1130E809091B900987F983011F09031A1F480933B
S1130E90BB0084E88093BC00ECEBF0E08081882305
S1130EA0ECF79091B900987F983139F081E0903453
S1130EB029F480E0089581E0089580E00895CF93B7
S1130EC0DF93ECEBF0E024EAA9EBB0E0CBEBD0E06D
S1130ED034E844E9208390819923ECF79C91987F2E
S1130EE0983011F09031B1F7888330839081992341
S1130EF0ECF79C91987F903211F0983529F4408357
S1130F00908194FDFDCFE6CFDF91CF910895B0CFCE
S1130F10089584E98093BC00ECEBF0E0808184FDCB
S1130F20FDCF08958093BB0084E88093BC00ECEB74
S1130F30F0E080818823ECF79091B900987F81E0FC
S1130F40983209F480E0089584EC8093BC00ECEBC3
S1130F50F0E080818823ECF78091BB00089584E859
S1130F608093BC00ECEBF0E080818823ECF7809167
S1130F70BB000895CF93DF93E1E8F0E01082A0E88E
S1130F80B0E01C92109282001092850010928400AE
S1130F9029E830E0E9011882C8E8D0E0188210920C
S1130FA08B0010928A0010928D0010928C00109287
S1130FB08700109286008C918C7F8C938081877E31
S1130FC0886080838081887F8360808389E0F901E1
S1130FD0808384EC8883EFE6F0E080818260808304
S1130FE0DF91CF9108959091020180910301E2E194
S1130FF0F1E09083818390910001809101019283BB
S11310008383909104018091050194838583909159
S11310101A0180911B019683878359D886E091E059
S1131020D7D88111FBCF86E091E031DE8130D9F34E
S1131030089518DF81E08093D800BFD8E9EDF0E08F
S1131040808182FFFDCF8FEF8093DA0040D8E6E005
S1131050F1E080E090E39383828382E191E09087E2
S1131060878381E0818388E0868384DFCFB7F89427
S11310708BE0E7DE23D1709303016093020186E1E4
S1131080E0DE1CD170930101609300018CE0D9DE95
S113109015D1709305016093040184E0D2DE0ED172
S11310A070931B0160931A01CFBFE0CF1F920F9280
S11310B00FB60F9211240BB60F922F933F934F93B9
S11310C05F936F937F938F939F93AF93BF93CF93CC
S11310D0DF93EF93FF93F894CFE6D0E088818D7F80
S11310E0888389E08093890084EC809388007BDF87
S11310F08881826088837894FF91EF91DF91CF910A
S1131100BF91AF919F918F917F916F915F914F911B
S11311103F912F910F900BBE0F900FBE0F901F9019
S113112018955058BB27AA270ED04DC13ED130F098
S113113043D120F031F49F3F11F41EF433C10EF477
S1131140E095E7FB29C1E92F4FD180F3BA17620775
S113115073078407950718F071F49EF567C10EF4C0
S1131160E0950B2EBA2FA02D0B01B90190010C01B3
S1131170CA01A0011124FF27591B99F0593F50F4CB
S1131180503E68F11A16F040A22F232F342F442723
S1131190585FF3CF469537952795A795F04053951B
S11311A0C9F77EF41F16BA0B620B730B840BBAF0EB
S11311B09150A1F0FF0FBB1F661F771F881FC2F756
S11311C00EC0BA0F621F731F841F48F4879577956A
S11311D06795B795F7959E3F08F0B3CF9395880F21
S11311E008F09927EE0F9795879508950CD0EBC0DA
S11311F0E3D040F0DAD030F021F45F3F19F0CCC0F6
S1131200511115C1CFC0F0D098F39923C9F35523D8
S1131210B1F3951B550BBB27AA27621773078407E5
S113122038F09F5F5F4F220F331F441FAA1FA9F39B
S113123033D00E2E3AF0E0E830D091505040E6958D
S1131240001CCAF729D0FE2F27D0660F771F881FEE
S1131250BB1F261737074807AB07B0E809F0BB0BDD
S1131260802DBF01FF2793585F4F2AF09E3F510501
S113127068F092C0DCC05F3FECF3983EDCF38695E7
S113128077956795B795F7959F5FC9F7880F911D77
S11312909695879597F90895E1E0660F771F881F63
S11312A0BB1F621773078407BA0720F0621B730B16
S11312B0840BBA0BEE1F88F7E095089504D0689468
S11312C0B111B5C0089598D088F09F5790F0B92F08
S11312D09927B751A0F0D1F0660F771F881F991F87
S11312E01AF0BA95C9F712C0B13081F09FD0B1E0BD
S11312F008959CC0672F782F8827B85F39F0B93FCD
S1131300CCF3869577956795B395D9F73EF4909588
S11313108095709561957F4F8F4F9F4F0895E89406
S113132009C097FB3EF490958095709561957F4F29
S11313308F4F9F4F9923A9F0F92F96E9BB279395D7
S1131340F695879577956795B795F111F8CFFAF4E7
S1131350BB0F11F460FF1BC06F5F7F4F8F4F9F4F18
S113136016C0882311F096E911C0772321F09EE876
S1131370872F762F05C0662371F096E8862F70E0DC
S113138060E02AF09A95660F771F881FDAF7880FB6
S11313909695879597F9089597F99F6780E870E087
S11313A060E008959FEF80EC089500240A941616D7
S11313B0170618060906089500240A94121613063F
S11313C0140605060895092E0394000C11F48823CD
S11313D052F0BB0F40F4BF2B11F460FF04C06F5FE9
S11313E07F4F8F4F9F4F089557FD9058440F551FBF
S11313F059F05F3F71F04795880F97FB991F61F093
S11314009F3F79F087950895121613061406551F09
S1131410F2CF4695F1DF08C0161617061806991F75
S1131420F1CF86957105610508940895E894BB276A
S113143066277727CB0197F908950BD0C4CFB5DF82
S113144028F0BADF18F0952309F0A6CFABCF11240A
S1131450EECFCADFA0F3959FD1F3950F50E0551F4F
S1131460629FF001729FBB27F00DB11D639FAA27F5
S1131470F00DB11DAA1F649F6627B00DA11D661F44
S1131480829F2227B00DA11D621F739FB00DA11D65
S1131490621F839FA00D611D221F749F3327A00D1F
S11314A0611D231F849F600D211D822F762F6A2FBB
S11314B011249F5750408AF0E1F088234AF0EE0F40
S11314C0FF1FBB1F661F771F881F91505040A9F74D
S11314D09E3F510570F060CFAACF5F3FECF3983E7A
S11314E0DCF3869577956795B795F795E7959F5FB4
S11314F0C1F7FE2B880F911D9695879597F908954E
S1131500EE0FFF1F0024001C0BBE0790F691E02D88
S10915100994F894FFCFDA
S9030000FC
